S0130000736575736D6172746361722E7372656367
S1130000E85FFF1F652F0000EF140000B92F000008
S1130010BD2F0000C12F0000C52F0000000000000C
S1130020000000000000000000000000C92F0000D4
S1130030CD2F000000000000D12F0000D52F0000BC
S1130040E9250000F3250000FD2500000726000037
S1130050112600001B260000252600002F26000084
S113006039260000432600004D26000057260000D4
S1130070612600006B260000752600007F26000024
S1130080D92F0000DD2F0000E12F0000E52F000034
S1130090E92F0000ED2F00001D2E0000F12F0000BD
S11300A0F52F0000F92F0000592C0000632C0000EC
S11300B06D2C0000912D0000FD2F00000130000088
S11300C005300000093000000D3000001130000040
S11300D0153000009B2D0000193000001D30000079
S11300E02130000025300000293000002D300000B0
S11300F03130000029230000353000003323000094
S1130100393000003D2300003D300000472300004B
S11301104130000051230000453000005B23000003
S113012049300000A52D0000B72D00004D3000001F
S11301305130000055300000C10E0000CB0E00000D
S1130140D50E000059300000CD2B00005D300000BA
S1130150A52B0000AF2B0000B92B0000C32B00001F
S1130160F52D0000613000006530000069300000AA
S1130170792C0000972C00006D30000071300000D5
S1130180753000005D2B0000672B0000412D00003E
S113019079300000CD2D00007D3000002D140000CA
S11301A037140000411400004B14000055140000E3
S11301B08130000085300000893000008D3000005F
S11301C09130000095300000993000009D3000000F
S11301D0A1300000A5300000A9300000AD300000BF
S11301E0B1300000B1300000B1300000B130000087
S11301F0B1300000B1300000B1300000B130000077
S1130200B1300000B1300000B1300000B130000066
S1130210B1300000B1300000B1300000B130000056
S1130400FFFFFFFFFFFFFFFFFFFFFFFFFEFFFFFFF9
S113041010B4DFF8202A0C2303FB002212681268B0
S1130420DFF8103A0C2404FB00335B681A43DFF84E
S1130430043A0C2404FB00331B681A600022DFF822
S1130440F83953F820301A60DFF8EC2952F82020EC
S1130450526D52F00402DFF8E03953F820305A6547
S11304600022DFF8D43953F820305A600022DFF834
S1130470C83953F82030DA64DFF8BC2952F8202058
S113048091605FF0FF31DFF8B02952F82000C0F826
S1130490981010BC7047C0B2002802D0C0B2012826
S11304A001D1002010E0C0B2022802D0C0B203285B
S11304B001D1012008E0C0B2042802D0C0B205284E
S11304C001D1022000E00320704770B50400080049
S11304D01D000021D2B2002A08D0022A18D00ED35F
S11304E0042A27D01DD3052A2DD035E00126C0B219
S11304F0FFF7D1FFC0B2C00016FA00F12CE00226CB
S1130500C0B2FFF7C8FFC0B2C00016FA00F123E082
S11305100426C0B2FFF7BFFFC0B2C00016FA00F154
S11305201AE01026C0B2FFF7B6FFC0B2C00016FA38
S113053000F111E02026C0B2FFF7ADFFC0B2C00049
S113054016FA00F108E04026C0B2FFF7A4FFC0B2DB
S1130550C00016FA00F1FFE7EDB2012D0BD1DFF870
S1130560D80850F82400406E0843DFF8CC1851F83E
S1130570241048660AE0DFF8C00850F82400406EF2
S11305808843DFF8B41851F82410486670BD38B5B4
S113059004000D00D2B2002A0CD0022A00F0AE8171
S11305A071D3042A00F0C080C0F02181052A00F034
S11305B02C8287E2DFF8800850F82400406D400860
S11305C04000DFF8741851F824104865DFF8680813
S11305D050F82400D0F8800040084000DFF8581894
S11305E051F82410C1F88000DFF84C0850F82400BA
S11305F0006830F02000DFF8401851F8241008603B
S1130600DFF8340850F82400EDB210EBC500DFF831
S1130610281851F82410EDB211EBC501C96851F046
S11306203001C16000222900C9B2200000F04BFA59
S1130630002300222900C9B22000FFF746FF00234F
S113064001222900C9B22000FFF73FFF0023022244
S11306502900C9B22000FFF738FF00230322290034
S1130660C9B22000FFF731FF002304222900C9B2D8
S11306702000FFF72AFF002305222900C9B2200029
S1130680FFF723FF1EE2DFF8B00750F82400406DA7
S113069040084000DFF8A01751F824104865DFF83F
S11306A0980750F82400D0F8800040084000DFF894
S11306B0881751F82410C1F88000DFF87C0750F83F
S11306C02400006850F02000DFF86C1751F8241063
S11306D00860002300222900C9B22000FFF7F5FEBC
S11306E0002301222900C9B22000FFF7EEFE0023F7
S11306F002222900C9B22000FFF7E7FE00230322EB
S11307002900C9B22000FFF7E0FE002304222900DB
S1130710C9B22000FFF7D9FE002305222900C9B27F
S11307202000FFF7D2FECDE1DFF80C0750F82400DB
S1130730D0F8800040084000DFF8FC1651F824107F
S1130740C1F88000DFF8F00650F82400406D40083E
S11307504000DFF8E41651F824104865DFF8D806A5
S113076050F82400006830F02000DFF8CC1651F86F
S113077024100860DFF8C00650F82400EDB210EB36
S1130780C500DFF8B41651F82410EDB211EBC50121
S1130790C96831F03001C160002300222900C9B2C8
S11307A02000FFF792FE002301222900C9B2200095
S11307B0FFF78BFE002302222900C9B22000FFF7B5
S11307C084FE002303222900C9B22000FFF77DFE26
S11307D0002304222900C9B22000FFF776FE00237B
S11307E005222900C9B22000FFF76FFE6AE1DFF895
S11307F0480650F82400D0F8800040084000DFF894
S1130800381651F82410C1F88000DFF82C0650F88F
S11308102400006830F02000DFF81C1651F8241082
S11308200860DFF8140650F82400406D50F004000E
S1130830DFF8041651F824104865DFF8FC0550F879
S11308402400406D50F00100DFF8EC1551F824103D
S11308504865012300222900C9B22000FFF735FEB4
S1130860012301222900C9B22000FFF72EFE002334
S113087002222900C9B22000FFF727FE0023032229
S11308802900C9B22000FFF720FE01230422290019
S1130890C9B22000FFF719FE002305222900C9B2BE
S11308A02000FFF712FEDFF8900550F82400EDB2A7
S11308B010EBC500DFF8801551F82410EDB211EBF0
S11308C0C501C96851F03001C16000222900C9B2D4
S11308D0200000F0F8F80320DFF85C1551F824102C
S11308E08865DFF8540550F82400806D50F08000CE
S11308F0DFF8441551F824108865E3E0DFF8380583
S113090050F82400D0F8800040084000DFF8281593
S113091051F82410C1F88000DFF81C0550F82400B9
S1130920006830F02000DFF8101551F8241008603A
S1130930DFF8040550F82400406D50F00400DFF89F
S1130940F81451F824104865DFF8EC0450F824003A
S1130950406D50F00100DFF8E01451F824104865B0
S1130960012300222900C9B22000FFF7AEFD0023B5
S113097001222900C9B22000FFF7A7FD00230222AB
S11309802900C9B22000FFF7A0FD0023032229009B
S1130990C9B22000FFF799FD012304222900C9B23E
S11309A02000FFF792FD002305222900C9B2200090
S11309B0FFF78BFDDFF8800450F82400EDB210EB54
S11309C0C500DFF8741451F82410EDB211EBC50121
S11309D0C96851F03001C16000222900C9B2200069
S11309E000F071F80320DFF8501451F824108865E2
S11309F0DFF8440450F82400806D50F08000DFF8E4
S1130A00381451F8241088655CE0DFF82C0450F8A1
S1130A102400D0F8800050F00100DFF81C1451F8D5
S1130A202410C1F88000DFF8100450F82400006896
S1130A3030F02000DFF8001451F824100860DFF8CB
S1130A40F80350F82400406D50F00400DFF8E81378
S1130A5051F824104865DFF8E00350F82400406D95
S1130A6050F00100DFF8D01351F824104865012339
S1130A7000222900C9B22000FFF727FD002301222C
S1130A802900C9B22000FFF720FD0023022229001B
S1130A90C9B22000FFF719FD002303222900C9B2BF
S1130AA02000FFF712FD002304222900C9B2200010
S1130AB0FFF70BFD002305222900C9B22000FFF730
S1130AC004FDFFE731BD002A02D0012A25D049E008
S1130AD0DFF8642352F82020C9B212EBC102DFF818
S1130AE0583353F82030C9B213EBC103DB6833F039
S1130AF00403D360DFF8402352F82020C9B212EB7C
S1130B00C102DFF8343353F82000C9B210EBC1003E
S1130B10C06850F00800D06024E0DFF81C2352F8CD
S1130B202020C9B212EBC102DFF80C3353F8203095
S1130B30C9B213EBC103DB6853F00403D360DFF8DD
S1130B40F82252F82020C9B212EBC102DFF8E832D1
S1130B5053F82000C9B210EBC100C06830F008009F
S1130B60D060FFE770472DE9F14781B00C00150014
S1130B701E0000270DF104085FF0000A14E0D8F805
S1130B800000800910F00702D8F80000400A10F0B5
S1130B901F001AEB0001C9B2D8F80000C0F3C2006C
S1130BA000F0CAF91AF1010AD8F80000C0F3843041
S1130BB05FFA8AFAC0B28245E1D34FF6FF79012089
S1130BC000F05EFCB0FBF5F14FF6FF72B1FBF2F101
S1130BD0B0FBF5F2B2FBF1F2B2F5803F00D3491C51
S1130BE05FF0000A06E0012212FA0AF2B1EB0209F0
S1130BF01AF1010A5FFA8AFABAF1070F1DDA012223
S1130C0012FA0AF28A1A002A04D5012212FA0AF206
S1130C10521A03E0012212FA0AF28A1A4A45E7D26A
S1130C205746012212FA0AF28A1A002ADBD5012257
S1130C3012FA0AF2B2EB0109DAE70122BA408A4257
S1130C4000DA7F1CFFB2082F00DB07270121B9401F
S1130C50B0FBF1F0B0FBF5F0411E3A00D2B298F8C7
S1130C60000010F00700FFF7D3FBE4B2002C03D020
S1130C70022C1BD00DD326E00022D8F80000C00CB3
S1130C8010F01F0198F8000010F00700FFF77FFC38
S1130C9019E00222D8F80000C00C10F01F0198F8E7
S1130CA0000010F00700FFF772FC0CE00322D8F8F4
S1130CB00000C00C10F01F0198F8000010F00700AD
S1130CC0FFF765FCFFE73200D8F80000C00C10F015
S1130CD01F0198F8000010F0070000F058F8DFF842
S1130CE0D40198F8001011F0070150F821000068B1
S1130CF030F01800DFF8BC1198F8002012F0070259
S1130D0051F822100860DFF8AC0198F8001011F0D7
S1130D10070150F82100006850F00800DFF8941132
S1130D2098F8002012F0070251F822100860DFF84A
S1130D30840198F8001011F0070150F821000068B0
S1130D40C008C000DFF86C1198F8002012F0070208
S1130D5051F822100860DFF85C0198F8001011F0D7
S1130D60070150F821000068FFB217F0070108439B
S1130D70DFF8401198F8002012F0070251F8221011
S1130D80086098F8000010F00700BDE8F68710B47A
S1130D90DFF8203153F820309B6802FB03F242F263
S1130DA01073B2FBF3F2DFF80C3153F820305B6EB2
S1130DB013F0013F33D0C9B2022391FBF3F404FBD7
S1130DC01314002C11D0DFF8EC3053F82030C9B2E2
S1130DD013EBC10300249C60DFF8D83053F82030B3
S1130DE0C9B213EBC1010A6110E0DFF8C83053F84F
S1130DF02030C9B213EBC10300241C61DFF8B43006
S1130E0053F82030C9B213EBC1018A615FF0FF319E
S1130E10DFF8A02052F82000C0F8981007E0DFF8AF
S1130E20943053F82000C9B210EBC100026110BC29
S1130E30704700006C2E0000742F000010B50400F1
S1130E401D4850F82400002803D01B4850F8240003
S1130E508047184850F82400006810F0C00F09D0EB
S1130E60144850F82400006830F08000114951F80B
S1130E7024100860002017E00E4951F8241011EBEB
S1130E80C001C96811F0C00F0DD00A4951F82410EF
S1130E9011EBC001074A52F8242012EBC002D268B9
S1130EA032F08002CA60401C044951F82410884280
S1130EB0E2D310BD742F0000843FFF1F802F000079
S1130EC080B50020FFF7BAFF01BD80B50120FFF710
S1130ED0B5FF01BD80B50220FFF7B0FF01BD10B41E
S1130EE050F8041B81B102681218001D50F8043B2D
S1130EF0DC0744BFA9F10104E31852F8044B43F89A
S1130F00044B091FF9D1EBE710BC7047012110F025
S1130F101F029140DFF8F42440B2400942F8201047
S1130F207047012110F01F029140DFF8E42440B221
S1130F30400942F82010704710B4DFF8D8341B6819
S1130F40DFF8D44454F820402343DFF8C844236036
S1130F50DFF8C83453F82030C9B2DFF8C04454F87D
S1130F602040C9B254F8214034F4E06443F82140ED
S1130F70DFF8A83453F82030C9B2DFF8A04454F89D
S1130F8020000C00E4B250F82400D2B2120212F491
S1130F90E062104343F8210010BC704710B4DFF83E
S1130FA074341B68DFF8704454F820402343DFF89E
S1130FB064442360D2B2002A03D0022A35D012D36B
S1130FC055E0DFF8582452F82020C9B2DFF84C3439
S1130FD053F820000B00DBB250F8230030F002007D
S1130FE042F8210043E0DFF8342452F82020C9B24B
S1130FF0DFF8283453F82030C9B253F8213053F0C5
S1131000020342F82130DFF8142452F82020C9B238
S1131010DFF8083453F820000B00DBB250F823004B
S113102050F0010042F8210021E0DFF8F02352F8EB
S11310302020C9B2DFF8E43353F82030C9B253F8A2
S1131040213053F0020342F82130DFF8D02352F864
S11310502020C9B2DFF8C43353F820000B00DBB200
S113106050F823004008400042F82100FFE710BC7C
S1131070704710B4DFF89C331B68DFF89C4354F8C6
S113108020402343DFF88C432360D2B2002A10D0DF
S1131090DFF8882352F82020C9B252F8212052F0F8
S11310A02002DFF8783353F82000C9B240F8212039
S11310B00FE0DFF8682352F82020C9B252F821204B
S11310C032F02002DFF8543353F82000C9B240F85C
S11310D0212010BC704710B4DFF838331B68DFF8E8
S11310E0384354F820402343DFF828432360D2B226
S11310F0012A0ED1DFF8282352F820205269012357
S113110013FA01F11143DFF8182352F8200041616A
S11311100EE0DFF80C2352F820205269012313FA61
S113112001F132EA0101DFF8F82252F820004161AE
S113113010BC704710B504006078002806D002285F
S11311402AD016D304284DD039D35EE0002261683A
S1131150C9B22078FFF722FF00226168C9B2207863
S1131160FFF787FF00226168C9B22078FFF7B3FF59
S11311704BE002226168C9B22078FFF70FFF00221A
S11311806168C9B22078FFF774FF00226168C9B2B0
S11311902078FFF7A0FF38E001226168C9B2207807
S11311A0FFF7FCFE00226168C9B22078FFF761FFF7
S11311B000226168C9B22078FFF78DFF25E0012283
S11311C06168C9B22078FFF7E9FE01226168C9B2FB
S11311D02078FFF74EFF01226168C9B22078FFF73B
S11311E07AFF12E000226168C9B22078FFF7D6FEC8
S11311F000226168C9B22078FFF73BFF01226168D1
S1131200C9B22078FFF767FFFFE701226168C9B21E
S11312102078FFF791FE10BD1CB5040020008DF866
S113122000008DF80120019100A8FFF783FF200042
S1131230C0B216BD38B5774C2468774D55F82050A8
S11312402C43744D2C60754C54F82040C9B2734D36
S113125055F82050C9B255F8215035F4702544F89A
S11312602150DBB2002B04D16E494056FFF759FEE2
S1131270A3E0D2B2002A0CD0022A2AD019D3042A1D
S11312804BD036D3062A70D05BD3072A00F0818076
S113129093E0624A52F82020C9B2604B53F8200010
S11312A00B00DBB250F8230050F4803042F82100E8
S11312B083E05A4A52F82020C9B2584B53F8200010
S11312C00B00DBB250F8230050F4003042F8210048
S11312D073E0524A52F82020C9B2504B53F8200010
S11312E00B00DBB250F8230050F4403042F82100E8
S11312F063E04A4A52F82020C9B2484B53F82030E0
S11313000C00E4B253F8243053F4002342F82130A3
S113131044494056FFF7FAFD4FE0404A52F8202076
S1131320C9B23E4B53F820300C00E4B253F82430D9
S113133053F4102342F821303A494056FFF7E6FDB2
S11313403BE0364A52F82020C9B2344B53F82030DF
S11313500C00E4B253F8243053F4202342F8213033
S113136030494056FFF7D2FD27E02C4A52F820209E
S1131370C9B22A4B53F820300C00E4B253F824309D
S113138053F4302342F8213026494056FFF7BEFD7E
S113139013E0224A52F82020C9B2204B53F82030DF
S11313A00C00E4B253F8243053F4402342F82130C3
S11313B01C494056FFF7AAFDFFE731BD154A1268E4
S11313C0154B53F820301A43124B1A600A00002AB6
S11313D002D0154A42F82010704780B501000F482A
S11313E050F82100D0F8A0005FF0FF320B4B53F807
S11313F02130C3F8A0200C4A52F82120002A03D03F
S1131400094A52F82110884701BD000000E100E0BC
S113141080E100E038800440502F00003C2F0000A1
S1131420282F0000AC2F0000603FFF1F80B5002074
S1131430FFF7D3FF01BD80B50120FFF7CEFF01BD4B
S113144080B50220FFF7C9FF01BD80B50320FFF777
S1131450C4FF01BD80B50420FFF7BFFF01BD50F8F4
S1131460041B61B150F8042BD30744BFA9F1010355
S11314709A18002342F8043B091FFAD1EFE770479A
S113148038B50400002500F091F8164800681649A4
S11314900968090F491C48430500E4B2002C06D032
S11314A0012C0BD0032C11D0042C17D017E00E48BC
S11314B00068000F401CB5FBF0F511E00A48006815
S11314C0C0F30360401CB5FBF0F509E00648006872
S11314D0C0F30340401CB5FBF0F501E000E000253B
S11314E0280032BD0000FF1F44800440704780B5CF
S11314F0FFF7FCFF01BD00004CF220507B4908803F
S11315004DF62810794908804FF4E970784908802D
S11315105FF0FF307749086000207749087077480A
S11315200068400840007549086024207449087028
S11315309A20744908707448007810F01F007249AA
S113154008700320714908700020714908707148BF
S113155000788007FBD56F480078C006FBD46D483F
S11315600078C0B210F00C000828F8D105206749B3
S1131570087058206649087067485E4908606548E5
S113158000788006FBD5634800784006FBD51A2016
S11315905C4908705F480078C0B210F00C000C2859
S11315A0F8D15C4800784006FBD570475548007870
S11315B0C021084271D15648007840065CD4514895
S11315C00078400717D455480078C00701D4544820
S11315D001E04FF4004001214A4A1278C2F3C202EA
S11315E09140C9B2B0FBF1F045490978302211426B
S11315F003D0400901E04FF4004043490978C9B2DF
S113160011F0E00100290ED0202918D040291AD069
S113161060291CD080291ED0A02920D0C02922D026
S1131620E02924D027E04FF4207148433149096868
S1131630090F491CB0FBF1F03A49086070474FF4B8
S1131640A0614843F2E74FF4F0614843EEE74FF4FA
S113165020614843EAE74FF437714843E6E74FF423
S1131660B7614843E2E740F695014843DEE740F6B8
S113167071314843DAE7D9E72448007810F01F00B5
S1131680411C2748C9B2B0FBF1F02149097811F097
S11316901F011831C9B24843C8E71A480078C0B2DC
S11316A010F0C000402810D115480078C00702D4BB
S11316B04FF40040BAE71C4801211C4A1278C2F3D7
S11316C042029140B0FBF1F0B0E70E480078C0B29E
S11316D010F0C000802808D110480078C00701D459
S11316E00F48A3E74FF40040A0E7A7E70E2005400A
S11316F0002005404480044000500640048004401B
S113170001400640004006400340064004400640B5
S11317100540064006400640000017010C40064004
S11317200024F4000000FF1F00093D0008400640AB
S11317302DE9F84F002000255FF0000E0021002263
S113174000235FF0000C5FF000095FF0000A5FF017
S1131750000BDFF89466DFF894763F683F78BE5D4F
S1131760A02E33D0DFF88006DFF880562D682D7860
S1131770285C00282AD0DFF87406006800780F2857
S113178024DADFF86C06DFF864562D682D78285CBF
S1131790401CDFF85456DFF8546636683678755DB9
S11317A0A8420FDADFF84006DFF840562D682D789E
S11317B0285CDFF83C56DFF8346636683678755DA9
S11317C0451B00E0012515F1080637E0DFF8240683
S11317D0DFF824562D682D78285C00282BD0DFF8FC
S11317E01806006800780F2825DADFF80806DFF805
S11317F008562D682D78285CDFF8F455DFF8F86575
S113180036683678755D281800B28F2801DB8E257E
S11318100EE0DFF8E005DFF8E0552D682D78285C50
S1131820DFF8CC55DFF8D06536683678755D2D184D
S113183015F1080602E04B2515F10806DFF8B4059A
S1131840DFF8B4753F683F78385C002833D0DFF8A0
S1131850A805006800780F282DDADFF89805DFF86E
S113186098753F683F78385CDFF88475DFF888E561
S1131870DEF800E09EF800E01EF80770381800B2A9
S1131880932813DADFF86C05DFF86C753F683F784E
S1131890385CDFF85C75DFF860E5DEF800E09EF8A0
S11318A000E01EF8077017EB000E01E05FF0930EE6
S11318B01EF108083FE0DFF83005DFF830753F68B7
S11318C03F78385CA02832D0DFF820050068007823
S11318D00F282CDADFF81805DFF810753F683F7819
S11318E0385C401DDFF80075DFF800E5DEF800E045
S11318F09EF800E01EF80770B84213DADFF8E80437
S1131900DFF8E8743F683F78385CDFF8E474DFF8A8
S1131910DCE4DEF800E09EF800E01EF80770B0EBAF
S1131920070E01E05FF0050E1EF1080803E05FF00A
S11319304B0E1EF10808002006E00027DFF8B494DF
S1131940C0B200F80970401CC0B2322880F24A824A
S1131950DFF8A8743F68C0B25FF0A00909FB007704
S1131960C0B2002800F05581451E00E06D1EEDB2A6
S1131970002D0AD0C0B2EDB2461B052E05DADFF801
S11319806864EDB2AE5DA02EF0D0DFF85C64EDB219
S1131990AE5DA02E58D0DFF85864EDB2AE5DDFF82E
S11319A048E4EDB215F80EE0764530D2DFF8446431
S11319B0C0B2861916F8016C002E1DD0DFF8286419
S11319C0EDB2AE5DDFF828E4EDB215F80EE0B6EB4B
S11319D00E06DFF820E4C0B210EB0E0E1EF801EC88
S11319E01EF1050E764507DADFF80854C0B2451932
S11319F015F8015C6D1D24E0DFF8EC63EDB2AE5D1B
S1131A00DFF8ECE3EDB215F80E50751B19E0DFF8C2
S1131A10E453C0B2451915F8015C002D10D0DFF86D
S1131A20D453C0B2451915F8015C6D1D982D07DA21
S1131A30DFF8C053C0B2451915F8015C6D1D00E014
S1131A40012515F1080620E0DFF8A853C0B24519B6
S1131A5015F8015C002D15D0DFF89853C0B2451974
S1131A6015F8015C6D1D2DB28F2D01DB8E2506E06E
S1131A70DFF88053C0B2451915F8015C6D1D15F1EE
S1131A80080602E04B2515F10806B0F1010E01E04D
S1131A90BEF1010E5FFA8EFEBEF1000F10D0C0B28F
S1131AA05FFA8EFEB0EB0E08B8F1050F08DADFF826
S1131AB044835FFA8EFE1EF80880B8F1000FE7D069
S1131AC0DFF830835FFA8EFE1EF80880B8F1000F4D
S1131AD078D0DFF820835FFA8EFE1EF80880DFF8E6
S1131AE010935FFA8EFE1EF8099019EB08080FFA9E
S1131AF088F8B8F1930F3FDADFF8EC82C0B210EB4C
S1131B00080818F8018CB8F1A00F26D0DFF8D882A5
S1131B10C0B210EB080818F8018CB8F10D08DFF812
S1131B20D4925FFA8EFE1EF80990DFF8C4A25FFA21
S1131B308EFE1EF80AA01AEB09090FFA88F80FFAAC
S1131B4089F9C84509DADFF8A0E2C0B210EB0E0E3D
S1131B501EF801ECBEF10D0E31E0DFF898825FFA59
S1131B608EFE1EF80880DFF888925FFA8EFE1EF85B
S1131B7009E01EEB080E22E0DFF86CE2C0B210EBC5
S1131B800E0E1EF801ECBEF1A00F02D15FF0930E11
S1131B9015E0DFF854E2C0B210EB0E0E1EF801ECB3
S1131BA0BEF10E0F09DBDFF840E2C0B210EB0E0EFF
S1131BB01EF801ECBEF10D0E01E05FF04B0E1EF1BC
S1131BC0080826E0DFF820E2C0B210EB0E0E1EF883
S1131BD001ECBEF1A00F18D0DFF80CE2C0B210EB9C
S1131BE00E0E1EF801ECBEF1130F09DBDFF8F8E16D
S1131BF0C0B210EB0E0E1EF801ECBEF10D0E01E0AA
S1131C005FF0050E1EF1080803E05FF04B0E1EF1B5
S1131C1008080FFA8EFEBEF1010F0FDA36B2A02EBD
S1131C2078DBC9B2002900F0CA8000216E4FC0B22F
S1131C30C455CAE0BEF1010EB8F101080FFA8EFED8
S1131C40BEF1010FEADBD2B2002AE7D10FFA8EFE11
S1131C501EF8079019F132090FFA88F818F807A04E
S1131C60D145E7DA0FFA8EFE1EF8079019F1320912
S1131C700FFA88F818F807A0D14516DA0FFA8EFE85
S1131C80BEF1010F11DB0FFA88F818F80790B9F1CB
S1131C90FF0F01DA1CF1010CBEF1010EB8F10108CD
S1131CA05FFA8CFCBCF1020FDCDB5FFA8CFCBCF14C
S1131CB0020F2ADB1EF102098DF800905FF0000C80
S1131CC05FF0000B5FF0000910E00FFA8EFE1EEBD0
S1131CD0070A5FFA89F919EB0A0A9AF802A0BAF11D
S1131CE06F0F01DB1BF1010B19F101095FFA89F98F
S1131CF0B9F10A0FE9DB5FFA8BFBBBF1070F01DBDC
S1131D0001229BE75FF0000C98E75FF0000C95E779
S1131D106D1C761C36B2A02E83DAC9B200297FF47A
S1131D2080AF36B216F8079019F132092DB215F8C2
S1131D3007A0D145ECDA36B216F8079019F132094A
S1131D402DB215F807A0D1450EDA36B2A02E0BDA63
S1131D502DB215F80790B9F1FF0F00DA5B1C6D1C6A
S1131D60761CDBB2022BE6DBDBB2022B25DB330075
S1131D709C1E00235FF0000B5FF0000A0FE036B2F8
S1131D8016EB07095FFA8AFAB9EB0A0919F8029CFB
S1131D90B9F16F0F01DB1BF1010B1AF1010A5FFAB4
S1131DA08AFABAF10A0FEADB5FFA8BFBBBF1070F81
S1131DB001DB0121AEE70023ACE70023AAE7A0275B
S1131DC0DFF82490C0B200F80970D2B2002A3FF4C0
S1131DD0B4AD00229DF80070DFF81890C0B200F88E
S1131DE00970B0E5BDE8F18FC83EFF1FD43FFF1F67
S1131DF00C2D0000FC3EFF1FD83FFF1FD03FFF1FEC
S1131E00002000210022100000E0401C80B2322893
S1131E10FBDB704770B504000120FFF731FB21792B
S1131E20002902D02179012902D10020FFF728FBE3
S1131E302060DFF8E00421790C2202FB0100006835
S1131E400068DFF8D01422790C2303FB02114968DF
S1131E500843DFF8C01422790C2303FB021109683C
S1131E600860DFF8B404217950F82100DFF8A814E1
S1131E70227951F82210C97811F0F301C170206859
S1131E80A1680901B0FBF1F021684901A2681201BF
S1131E90B1FBF2F180B24201891ADFF87C24237984
S1131EA052F82320127812F0E002DFF86C3425791E
S1131EB053F825301A70DFF86024237952F8232070
S1131EC05278DFF85434257953F8253000255D70B5
S1131ED0DFF84434257953F82530DFF83C5426796B
S1131EE055F82650AD7A15F0E0059D72DFF82834D8
S1131EF0257953F825301B7880B2050A15F01F05A3
S1131F002B43DFF81454267955F826502B70DFF84C
S1131F100834257953F825305870DFF8FC03237909
S1131F2050F82300DFF8F033257953F825309B7AF5
S1131F3011F01F0119438172207B002804D002286C
S1131F401FD003283AD056E0DFF8CC03217950F8AB
S1131F502100DFF8C413227951F82210897811F096
S1131F60FD018170DFF8B003217950F82100DFF81A
S1131F70A813227951F82210897811F0EF018170A9
S1131F8039E0DFF89403217950F82100DFF8881351
S1131F90227951F82210897851F002018170DFF81A
S1131FA07803217950F82100DFF86C13227951F875
S1131FB02210897811F0FE0181701CE0DFF85803CB
S1131FC0217950F82100DFF85013227951F82210BA
S1131FD0897851F002018170DFF83C03217950F8CF
S1131FE02100DFF83413227951F82210897851F056
S1131FF001018170FFE7607B002802D0012842D0F4
S113200083E0DFF81403217950F8210080788007F9
S11320101CD5DFF80403217950F82100DFF8F81209
S1132020227951F82210897851F010018170DFF87B
S1132030E802217950F82100DFF8DC12227951F806
S11320402210897A11F0DF0181721BE0DFF8C802E7
S1132050217950F82100DFF8C012227951F82210BA
S1132060897811F0EF018170DFF8AC02217950F822
S11320702100DFF8A412227951F82210897A11F094
S1132080DF01817241E0DFF89002217950F82100EC
S1132090807880071CD5DFF88002217950F8210070
S11320A0DFF87412227951F82210897851F0100166
S11320B08170DFF86402217950F82100DFF85812AA
S11320C0227951F82210897A51F0200181721BE0A3
S11320D0DFF84402217950F82100DFF83C1222791C
S11320E051F82210897851F010018170DFF828022C
S11320F0217950F82100DFF82012227951F82210BA
S1132100897A11F0DF018172FFE7DFF80C0221798F
S113211050F82100DFF80012227951F82210497991
S113212011F0DF014171DFF8F001217950F821004D
S1132130DFF8E411227951F82210C97851F00C012A
S1132140C170DFF8D8010078002803D02079DFF8C7
S1132150C01108700020DFF8C411087070BDC9B246
S113216000290DD0DFF8B01151F82010097C51F08E
S11321708001DFF8A42152F820000174C9B20CE0F8
S1132180DFF8941151F82010097C11F07F01DFF879
S1132190882152F820000174C9B27047C9B20029DD
S11321A00DD0DFF8741151F82010097C51F00801AA
S11321B0DFF8642152F820000174C9B20CE0DFF8A2
S11321C0581151F82010097C11F0F701DFF848216B
S11321D052F820000174C9B2704731B584B004AC20
S11321E00291207810F007008DF8040000208DF88B
S11321F00C0000208DF80D0000250FE020688009F8
S113220010F007022068400A10F01F002918C9B214
S11322102068C0F3C200FEF78FFE6D1C2068C0F377
S11322208430EDB2C0B28542E8D300A8FFF7F2FDD6
S11322300021207810F00700FFF791FF002120789B
S113224010F00700FFF7AAFF207810F0070005B090
S113225030BD1CB50400304850F824000079000655
S113226015D52D4850F82400C07800060FD52C4809
S113227050F82400002804D000A8294951F824105B
S11322808847BDF80000244951F82410C871224839
S113229050F824000079800616D51F4850F8240011
S11322A0C078800610D51C4850F82400C079ADF8D9
S11322B000001C4850F82400002805D0BDF8000098
S11322C0184951F824108847134850F8240000791D
S11322D0000704D5104850F82400C07901900E4836
S11322E050F824000079C0060FD50B4850F824009C
S11322F0C07901900B4850F82400002805D04FF60F
S1132300FF70084951F82410884713BD00000000ED
S1132310E43FFF1FC42C0000102F00000400FF1F27
S1132320303FFF1F483FFF1F80B50020FFF791FF9C
S113233001BD80B50120FFF78CFF01BD80B50220EF
S1132340FFF787FF01BD80B50320FFF782FF01BDC2
S113235080B50420FFF77DFF01BD80B50520FFF7A0
S113236078FF01BD10B4DFF85C12096851F0020176
S1132370DFF850221160DFF84C12096851F00201B5
S1132380DFF840221160DFF84012096851F00201C1
S1132390DFF8342211600178DFF83022126801235B
S11323A08B409A43DFF824321A60427812F03F02DD
S11323B0DFF81C321B68C9B2CA548279002A02D0E1
S11323C0012A0DD019E0DFF808221268C9B28A5C2C
S11323D012F0BF02DFF8F8311B68C9B2CA540CE02E
S11323E0DFF8EC211268C9B28A5C52F04002DFF8CF
S11323F0E0311B68C9B2CA54FFE70022C9B24B01DD
S113240003F1804313F51043DA800022C9B24B0173
S113241003F1804313F510439A834288C9B24B01F8
S113242003F1804313F510439A6082885204520CDE
S1132430C9B24B0103F1804313F51043DA82828859
S11324405204520CC9B24B0103F1804313F51043FB
S1132450DA83C268DFF87C31C9B24C01E250826889
S1132460C9B24B0103F1804313F510439A80C9B2FA
S11324704A0102F1804212F51042D288037C1B0209
S113248013F4E0631A43C9B24B0103F1804313F51B
S11324901043DA80C9B24A0102F1804212F51042B7
S11324A0D288037E52EAC322C9B24B0103F18043AE
S11324B013F51043DA804269C9B24B0103F180433A
S11324C013F51043DA60026AC9B24B0103F1804389
S11324D013F510431A61C269C9B24B0103F1804379
S11324E013F510439A82C9B24A0102F1804212F5EF
S11324F01042D28890F8243013F007031A43C9B26B
S11325004B0103F1804313F51043DA80C9B24A0149
S113251002F1804212F51042D28890F82C30DB0090
S113252013F0F8031A43C9B24B0103F1804313F5C6
S11325301043DA80806AC9B24A0102F1804212F57E
S113254010429061C9B2480100F1804010F510407A
S1132550808B50F00800C9B24A0102F1804212F5A2
S1132560104290831A480068C9B2085C50F0800099
S1132570174A1268C9B28854C9B2080010BC70471F
S113258010F00F0014490870704710F00F00134941
S113259008707047C0B2400100F1804010F510404F
S11325A00161704780B510F00F010E4A11700C499B
S11325B051F82010002903D0094951F82000804720
S11325C001BD00003C800440408004400C80004079
S11325D0B42F0000009000401B8000401A8000408F
S11325E0883EFF1F1F80004080B50020FFF7DAFF00
S11325F001BD80B50120FFF7D5FF01BD80B50220E4
S1132600FFF7D0FF01BD80B50320FFF7CBFF01BD6D
S113261080B50420FFF7C6FF01BD80B50520FFF794
S1132620C1FF01BD80B50620FFF7BCFF01BD80B529
S11326300720FFF7B7FF01BD80B50820FFF7B2FF01
S113264001BD80B50920FFF7ADFF01BD80B50A20AB
S1132650FFF7A8FF01BD80B50B20FFF7A3FF01BD65
S113266080B50C20FFF79EFF01BD80B50D20FFF75C
S113267099FF01BD80B50E20FFF794FF01BD80B521
S11326800F20FFF78FFF01BD80B501220621022034
S1132690FEF7C2FD6C490220FEF790FE00230422DF
S11326A006210220FEF7C6FD022207210220FEF7C2
S11326B0B3FD65490220FEF781FE002304220721B1
S11326C00220FEF7B7FD022202210220FEF7A4FD3C
S11326D00023002202210220FEF7ACFD0122082182
S11326E00220FEF799FD012209210220FEF794FD44
S11326F001220A210220FEF78FFD01220B21022074
S1132700FEF78AFD01220C210220FEF785FD01223D
S11327100D210220FEF780FD01220E210220FEF78A
S11327207BFD01220F210220FEF776FD5FF4E131EB
S11327304AF2D300FFF751FD00F017F800F076F8E5
S113274000F088F80123042206210220FEF772FD1E
S11327500123042207210220FEF76CFD012300223D
S113276002210220FEF766FD01BD10B58CB000A861
S1132770302100F071F800208DF8000033208DF82E
S1132780010000208DF806000120ADF80200A02011
S1132790ADF804002D48039000200590002002901D
S11327A000208DF8100000208DF8180000200A90F9
S11327B00120079000208DF8240000208DF82C00C3
S11327C000A8FFF7CFFD0020FFF7DFFE002404225E
S11327D000210220FEF720FD042203210220FEF73F
S11327E01BFD04E02421142000F03AF80419E4B29B
S11327F0002CF7D0E4B2012C0AD12021242000F0CF
S11328002FF80419F6E7C121702000F029F8041903
S1132810E4B2022CF7D0E4B2032C05D1A0210620A7
S113282000F01EF80419F6E70CB010BD80B5084B93
S11328303222002146F2CA40FEF795F90122002116
S11328400220FEF740F901BD3D2A000091F00F403F
S113285020A1070070470000002200F0D5B8000056
S113286038B504000D0000F01FF8002801D1002045
S113287019E0422000F090F800F061F8002803D13C
S113288000F047F800200EE02000C0B200F084F809
S113289000F055F82800C0B200F07EF800F04FF8C0
S11328A000F037F8012032BD80B501204F4908609F
S11328B001204F49086041F2883000F09FF8002061
S11328C04C4908604C480068002804D1012049495B
S11328D0086000201CE001204649086000204349AC
S11328E0086041F2883000F089F80020414908600E
S11328F041480068002804D001203E4908600020B7
S113290006E001203B4908600020384908600120A6
S113291002BD80B5002036490860002033490860B4
S113292041F2883000F06AF8012031490860012042
S11329302E49086041F2883000F060F801BD80B58E
S113294000202B49086041F2883000F057F801203C
S11329502649086041F2883000F050F801202449EB
S1132960086000202349086041F2883000F046F8EE
S113297021480068002807D001201E490860002073
S11329801B490860002006E001201A490860002065
S113299017490860012002BD38B5040008250EE07F
S11329A0002012490860640041F2883000F026F8E3
S11329B001200F49086041F2883000F01FF8280018
S11329C0451EC0B200280CD000200949086041F21D
S11329D0883000F013F82006E2D50120034908608E
S11329E0E1E700200249086031BD00000C10FE43FD
S11329F00010FE438C12FE430C12FE4300E0401E06
S1132A0080B20028FBD1704700B500BF1300964682
S1132A109446103928BFA0E80C50FAD85FEA417CEC
S1132A2028BF0CC048BF40F8042BC90728BF20F8B2
S1132A30022B48BF00F8012B00BD000010B50400B4
S1132A40200614D51F480088022190FBF1F202FBF6
S1132A501102012A06D11B480088642802DA0020EA
S1132A60FFF78EFD17480088401C16490880600651
S1132A7027D500201349088013480068142805D27C
S1132A8011480068401C104908601AE00F4800888B
S1132A90D0F101000D4908800C480088002801D0BD
S1132AA00B4900E00B490020FFF774FD074800883C
S1132AB0002803D007480849086002E00448064992
S1132AC0086010BDE23FFF1FCC3FFF1FE03FFF1F28
S1132AD00800FF1F481FFF1FD03FFF1F80B51D497F
S1132AE051F8201091F821104A070BD5194A52F8D1
S1132AF0202092F8202012F0FB02164B53F82030CD
S1132B0083F82020CA070BD5124A52F8202092F8E5
S1132B10202012F0FE020F4B53F8203083F82020BF
S1132B2089070BD50B4951F8201091F8201011F0AA
S1132B30FD01084A52F8202082F82010064951F875
S1132B402010002903D0044951F82000804701BD1A
S1132B5000000000A42F0000AC3FFF1F80B5002040
S1132B60FFF7BCFF01BD80B50120FFF7B7FF01BD32
S1132B7080B50A4911EB0011C96851F00101074AF7
S1132B8012EB0012D160064951F82010002903D03D
S1132B90034951F82000804701BD00000071034043
S1132BA0743FFF1F80B50020FFF7E2FF01BD80B531
S1132BB00120FFF7DDFF01BD80B50220FFF7D8FF3C
S1132BC001BD80B50320FFF7D3FF01BD80B51448D4
S1132BD00068002802D01248006880470F48006847
S1132BE0800707D50C480068800703D508480068AB
S1132BF00749086009480068400707D50648006887
S1132C00400703D5034800680249086001BD00007D
S1132C1000D0034008D0034014D003401CD003402C
S1132C20C43FFF1F80B50A4951F82010C96A51F00A
S1132C300041074A52F82020D162064951F8201079
S1132C40002903D0034951F82000804701BD00004A
S1132C508C2F0000903FFF1F80B50020FFF7E2FF9C
S1132C6001BD80B50120FFF7DDFF01BD80B5022065
S1132C70FFF7D8FF01BD000080B50F48006850F091
S1132C8000600D4908600D480068002802D00B4818
S1132C900068804701BD80B50748006850F00070A7
S1132CA00549086006480068002802D00448006806
S1132CB0804701BD0000000004000C40B43FFF1F2A
S1132CC0B83FFF1F348004400004000000000000EF
S1132CD034800440000800000000000034800440F8
S1132CE000100000000000003480044000200000B8
S1132CF000000000288004400004000000000000E0
S1132D00288004400008000000000000282828282B
S1132D102828282828282828282828262626262639
S1132D2023232323231D1C1B1919181818181717DC
S1132D301717161616161515151515141414000064
S1132D4080B50A48006850F4804008490860074884
S1132D50006850F4004005490860054800680028F0
S1132D6002D003480068804701BD000000500440C1
S1132D70C83FFF1F80B5054951F82010002903D032
S1132D80024951F82000804701BD0000A43FFF1F05
S1132D9080B50020FFF7EEFF01BD80B50120FFF7ED
S1132DA0E9FF01BD80B508480068002802D0064844
S1132DB00068804701BD80B503484068002802D000
S1132DC001484068804701BD9C3FFF1F80B507480C
S1132DD0006850F080000549086005480068002834
S1132DE002D003480068804701BD00000000044091
S1132DF0BC3FFF1F80B50748006830F0400005491C
S1132E00086005480068002802D00348006880472D
S1132E1001BD000000600340C03FFF1F80B50848AB
S1132E20008850F4004006490880044800680028DF
S1132E3002D002480068804701BD0000DC3FFF1F4C
S1132E400220054010B5074979441831064C7C44EA
S1132E50163404E00A68081D511888470146A14247
S1132E60F8D110BD2C0000004C0000003C80044050
S1132E7000000001000000003C800440000000024B
S1132E800000000030800440000000010000000049
S1132E90CFE5FFFFE03F00000800FF1F0000000037
S1132EA03FE0FFFF080000000C0200000000FF1FCD
S1132EB00000000000F00BF8002801D0FFF7C2FF6B
S1132EC00020C046C04600F005F800F00EF80120CE
S1132ED07047000080B572B6FFF7D6FB62B60020DB
S1132EE0FEF726FCFEF78CFFFAE700F001B80000BD
S1132EF00746384600F002F8FBE7000080B5C046FC
S1132F00C046024A11001820ABBEFBE726000200AF
S1132F1000A0064000B0064000C0064000D00640B5
S1132F2000A00E4000B00E4000F00F4040F00F40F3
S1132F3080F00F40C0F00F4000F10F4000900440BB
S1132F4000A0044000B0044000C0044000D004408D
S1132F50000200000004000000080000001000004F
S1132F60002000000148804701480047F914000090
S1132F70992F0000008003400090034000800B4024
S1132F8008000000020000000200000000C002402F
S1132F9000D0024000C00A40C046C046C046C046F9
S1132FA0FFF788FF00C00C4000D00C405758595A16
S1132FB05B00000000100240FFF7FEBFFFF7FEBFFA
S1132FC0FFF7FEBFFFF7FEBFFFF7FEBFFFF7FEBF31
S1132FD0FFF7FEBFFFF7FEBFFFF7FEBFFFF7FEBF21
S1132FE0FFF7FEBFFFF7FEBFFFF7FEBFFFF7FEBF11
S1132FF0FFF7FEBFFFF7FEBFFFF7FEBFFFF7FEBF01
S1133000FFF7FEBFFFF7FEBFFFF7FEBFFFF7FEBFF0
S1133010FFF7FEBFFFF7FEBFFFF7FEBFFFF7FEBFE0
S1133020FFF7FEBFFFF7FEBFFFF7FEBFFFF7FEBFD0
S1133030FFF7FEBFFFF7FEBFFFF7FEBFFFF7FEBFC0
S1133040FFF7FEBFFFF7FEBFFFF7FEBFFFF7FEBFB0
S1133050FFF7FEBFFFF7FEBFFFF7FEBFFFF7FEBFA0
S1133060FFF7FEBFFFF7FEBFFFF7FEBFFFF7FEBF90
S1133070FFF7FEBFFFF7FEBFFFF7FEBFFFF7FEBF80
S1133080FFF7FEBFFFF7FEBFFFF7FEBFFFF7FEBF70
S1133090FFF7FEBFFFF7FEBFFFF7FEBFFFF7FEBF60
S11330A0FFF7FEBFFFF7FEBFFFF7FEBFFFF7FEBF50
S10F30B0FFF7FEBF00E1F5050100000081
S9032F9934
