S0120000736575736D6172746361722E73313938
S1130000C079FF1F256800006B1D0000A96800006F
S1130010AD680000B1680000B56800000000000091
S1130020000000000000000000000000B9680000AB
S1130030BD68000000000000C1680000C568000041
S1130040A1550000AB550000B5550000BF55000098
S1130050C9550000D3550000DD550000E7550000E8
S1130060F1550000FB550000055600000F56000036
S113007019560000235600002D5600003756000084
S1130080C9680000CD680000D1680000D568000090
S1130090D9680000DD680000B5660000E168000072
S11300A0E5680000E9680000F1640000FB640000FA
S11300B00565000029660000ED680000F168000095
S11300C0F5680000F9680000FD680000016900009F
S11300D00569000033660000096900000D6900002D
S11300E01169000015690000196900001D6900000C
S11300F021690000CD33000025690000D7330000DA
S113010029690000E13300002D690000EB33000091
S113011031690000F533000035690000FF33000049
S1130120396900003D6600004F6600003D6900002B
S11301304169000045690000454B00004F4B000039
S1130140594B000049690000656400004D690000D6
S11301503D64000047640000516400005B640000DB
S11301608D6600005169000055690000596900005E
S1130170116500002F6500005D69000061690000E1
S113018065690000F5630000FF630000D9650000A5
S113019069690000656600006D690000E1520000B5
S11301A0EB520000F5520000FF520000095300001A
S11301B07169000075690000796900007D690000BB
S11301C08169000085690000896900008D6900006B
S11301D09169000095690000996900009D6900001B
S11301E0A1690000A1690000A1690000A1690000E3
S11301F0A1690000A1690000A1690000A1690000D3
S1130200A1690000A1690000A1690000A1690000C2
S1130210A1690000A1690000A1690000A1690000B2
S1130400FFFFFFFFFFFFFFFFFFFFFFFFFEFFFFFFF9
S113041010B5002472B601F0A3FC01F0C1FC01F098
S113042065FF62B60220DFF8881308600220DFF857
S1130430841308600320DFF8801308600320DFF8CA
S11304407C1308600420DFF8781308600420DFF8C8
S1130450741308600520DFF87013086008E00022B8
S11304600021642001F000FB0220DFF86013087013
S113047001F0D4FF02F06FFBDFF85403006800289A
S113048010D14B20DFF84C1308604920DFF84813E3
S113049008604720DFF8441308604520DFF8401364
S11304A008600FE04F20DFF82C1308604D20DFF8C0
S11304B0281308604B20DFF8241308604920DFF874
S11304C020130860DFF8540A006800280CD11C20AF
S11304D0DFF84C1A08600920DFF8481A0860232066
S11304E0DFF8441A08600BE01C20DFF8341A0860B7
S11304F00B20DFF8301A08602A20DFF82C1A086075
S1130500DFF8280A0068002804D16420DFF8201AE4
S1130510086003E00020DFF8181A08600A20DFF8FA
S1130520141A08601220DFF8101A08601C20DFF883
S11305300C1A0860DFF894020078022898D041F67B
S1130540B2541AE0DFF8F809DFF8801209784FF4A2
S1130550205202FB0100A4B2DFF8E419DFF86C2298
S1130560127852424FF4205303FB0211A4B26118D3
S113057011F5205109782154641CA4B2B4F5205F0C
S1130580E0DBDFF84802007802F054FB01F046FF9C
S1130590DFF888090068002801D100F023F9DFF8AA
S11305A0A409006802F08CFB01F0F3F902F0AAFB45
S11305B0DFF89419086000F0CDFC00F073FE00F041
S11305C026FFDFF888090268DFF88419032002F0A7
S11305D0DCFBDFF8780900680928FFF640AF002249
S11305E00021552001F040FA3EE770B50600317055
S11305F07270501AB070DBB2012B20D1DFF8940C6A
S11306000068D2B2105CDFF88C2C1268C9B2895C25
S1130610401A02F0F9FE0022DFF87C3C02F00CFFE5
S113062004000D00B07802F0F9FE02000B00200077
S1130630290002F0D3FF03F0F5F870601FE0DFF843
S11306405C0C0068D2B2105CDFF8502C1268C9B29E
S1130650895C401A02F0D8FE0022DFF83C3C02F02C
S1130660EBFE04000D00B07802F0D8FE02000B008F
S11306702000290002F0B2FF03F0D4F8706070BDCE
S11306802DE9F84304000D0017001E006068696836
S113069003F010F904D26868616803F01DF903E0FF
S11306A06068696803F018F9DFF8F41B03F088F94F
S11306B001D8002079E0FFB2012F22D1DFF8D40B5A
S11306C000682978085CDFF8CC1B09686278515C03
S11306D0401A02F099FE0022DFF8BC3B02F0ACFEA7
S11306E08046894628786178401A02F08DFE02001F
S11306F00B004046494602F071FF03F093F80700EF
S113070021E0DFF8980B00682978085CDFF88C1B7F
S113071009686278515C401A02F076FE0022DFF824
S1130720783B02F089FE8046894628786178401A31
S113073002F06AFE02000B004046494602F04EFFFA
S113074003F070F807006968606803F04BF9010072
S113075088463800390003F045F9414603F0AAF809
S11307600DD26968606803F03DF90400380039006F
S113077003F038F90100200003F0AEF80CE0380073
S1130780390003F02FF980466968606803F02AF99C
S11307900100404603F0A0F8DFF8001D03F010F953
S11307A001D8002001E037600120BDE8F283000099
S11307B0F858FF1FFC58FF1F0059FF1F0459FF1F63
S11307C00859FF1F0C59FF1F1059FF1FB100FF1FCD
S11307D0580AFE438859FF1F8C59FF1F9059FF1F69
S11307E09459FF1F2DE9F84F5FF000085FF00009EE
S11307F05FF0000AD34600242500002612E00023FF
S11308003000421ED2B24946C9B2DFF8940CE4B2B9
S113081010EBC400FFF7E9FE641C16F101095FF058
S1130820000A761C36B2312E80F2C580DFF8640AE5
S1130830006836B2305CDFF85C1A096836B27118A9
S11308404978884201D21BF1010BDFF8480A00689D
S113085036B2305C98282CD0DFF8380A006836B2FB
S113086030184078DFF82C1A096836B2715C884277
S11308700CD2DFF8200A006836B2305CDFF8141AB4
S1130880096836B271184978401A0BE0DFF8040A97
S1130890006836B230184078DFF8F819096836B2C3
S11308A0715C401A052804DA5FFA8BFBBBF1040F74
S11308B026DB36B25FFA88F8B6EB080006280DDAB4
S11308C04746FFB236B23FB2BE4215DB9820DFF88E
S11308D0C41909683FB278547F1CF3E70123300040
S11308E0421ED2B24146C9B2DFF8B80BEDB210EBEA
S11308F0C500FFF77AFE6D1C16F101085FF0000BCE
S1130900DFF89809006836B230184078DFF88C199F
S1130910096836B2715C884201D21AF1010ADFF823
S11309207C09006836B2305C00282DD0DFF86C09F1
S1130930006836B230184078DFF86019096836B2BA
S1130940715C88420CD2DFF85409006836B2305C1E
S1130950DFF84819096836B271184978401A0BE073
S1130960DFF83809006836B230184078DFF82C19FF
S1130970096836B2715C401A052805DA5FFA8AFA0A
S1130980BAF1040FFFF64DAF36B25FFA89F9B6EB50
S113099009000628BFF633AF4F46FFB236B23FB266
S11309A0BE42FFF63AAF0020DFF8F01809683FB204
S11309B078547F1CF2E7DFF8DC08006890F8300018
S11309C0DFF8D018096881F83100DFF8D008006832
S11309D090F83000DFF8C418096881F8310036B2A5
S11309E05FFA88F8B6EB080006280DDA4746FFB22E
S11309F036B23FB2BE4214DB9820DFF8981809687B
S1130A003FB278547F1CF3E701233200D2B241464F
S1130A10C9B2DFF8900AEDB210EBC500FFF7E5FDAF
S1130A206D1C36B25FFA89F9B6EB090006280DDAB7
S1130A304F46FFB236B23FB2BE4214DB0020DFF8AD
S1130A405C1809683FB278547F1CF3E70023320036
S1130A50D2B24946C9B2DFF8480AE4B210EBC40086
S1130A60FFF7C3FD641C5FF00008012615E03FB2E8
S1130A70381E322805D29820DFF8181809683FB2CA
S1130A8078547F1CDFF81C0A36B210EBC60040789D
S1130A90401C3FB2B842EADA761C2800C0B236B233
S1130AA000B2864250DA00AB0122DFF8F80936B210
S1130AB010EBC601DFF8EC095FFA88F810EBC80008
S1130AC0FFF7DEFD002838D0DFF8D8095FFA88F890
S1130AD010EBC8004078471C24E0DFF8B807006832
S1130AE0DFF8C0195FFA88F811EBC801497811F8EA
S1130AF000903FB2DFF8AC095FFA88F810EBC80049
S1130B004078381A02F0FEF80100009802F0ACFFB9
S1130B1002F0D6F810EB0900DFF8781709683FB245
S1130B2078547F1CDFF87C0936B210F836003FB2E7
S1130B3000B28742D1DBB046AEE7DFF8680936B2CF
S1130B4010F83600471E9DE7EDB2002D00F0B88086
S1130B500025DFF850095FFA88F810EBC8004078E8
S1130B60DFF840190978401A0B2804DADFF8340951
S1130B700078032838DADFF82C090078461E05E0EF
S1130B80DFF81017096836B27054761E36B2002E9C
S1130B902BD4DFF800070068DFF8081909780F5C28
S1130BA0DFF80009007836B2801B02F0ABF80100D0
S1130BB0DFF8F008406802F057FF02F081F8381AB5
S1130BC000B2002806D50020DFF8C816096836B23E
S1130BD07054DAE700B29828D2DB9820DFF8B41614
S1130BE0096836B27054D0E70125DFF8B8085FFA17
S1130BF088F810EBC8004078DFF8A8180978401A84
S1130C000B2804DADFF89C080078032848DADFF8B8
S1130C1094085FFA88F810EBC8004078461C05E099
S1130C20DFF87016096836B27054761C36B2322E6C
S1130C3037DADFF860060068DFF868185FFA88F8CA
S1130C4011EBC80149780F5C36B2DFF858085FFA37
S1130C5088F810EBC8004078301A02F053F801000D
S1130C60DFF840085FFA88F810EBC800406802F02B
S1130C70FBFE02F025F8C01900B2002806D50020BA
S1130C80DFF81016096836B27054CEE700B298281F
S1130C90C6DB9820DFF8FC15096836B27054C4E747
S1130CA00125EDB2002D0BD0002606E09820DFF8D8
S1130CB0E415096836B27054761C36B2322EF5DB70
S1130CC05FF00008012615E03FB2381E322805D235
S1130CD00020DFF8C81509683FB278547F1CDFF89C
S1130CE0C00736B210EBC6004078401C3FB2B84291
S1130CF0EADA761C2000C0B236B200B286424EDA7E
S1130D0000AB0022DFF8980736B210EBC601DFF81B
S1130D1090075FFA88F810EBC800FFF7B1FC0028D1
S1130D2036D0DFF87C075FFA88F810EBC80040780B
S1130D30471C22E0DFF864050068DFF864175FFAF7
S1130D4088F811EBC80149780D5C3FB2DFF8500711
S1130D505FFA88F810EBC8004078381A01F0D2FF27
S1130D600100009802F080FE01F0AAFF4019DFF8AC
S1130D702C1509683FB278547F1CDFF8240736B27B
S1130D8010F836003FB200B28742D3DBB046B0E77A
S1130D90DFF80C0736B210F83600471E9FE7E4B2BE
S1130DA0002C00F0B8800025DFF8F4065FFA88F81C
S1130DB010EBC8004078DFF8E8160978401A0B28D1
S1130DC004DADFF8DC060078032838DADFF8D00626
S1130DD00078461E05E0DFF8C414096836B2705482
S1130DE0761E36B2002E2BD4DFF8B0040068DFF88C
S1130DF0B01609780C5CDFF8A806007836B2801BC0
S1130E0001F080FF0100DFF89806406802F02CFE34
S1130E1001F056FF201A00B2002806D50020DFF8A2
S1130E207C14096836B27054DAE700B29828D2DB31
S1130E309820DFF86814096836B27054D0E70125A9
S1130E40DFF85C065FFA88F810EBC8004078DFF83A
S1130E5050160978401A0B2804DADFF844060078A3
S1130E60032848DADFF838065FFA88F810EBC80080
S1130E704078461C05E0DFF82414096836B2705443
S1130E80761C36B2322E37DADFF810040068DFF849
S1130E9010165FFA88F811EBC80149780C5C36B279
S1130EA0DFF8FC055FFA88F810EBC8004078301AC8
S1130EB001F028FF0100DFF8E8055FFA88F810EB7D
S1130EC0C800406802F0D0FD01F0FAFE001900B23B
S1130ED0002806D50020DFF8C413096836B2705420
S1130EE0CEE700B29828C6DB9820DFF8B013096873
S1130EF036B27054C4E70125EDB2002D0BD00026A4
S1130F0006E00020DFF89413096836B27054761CAA
S1130F1036B2322EF5DBBDE8F18F0000500AFE43F5
S1130F20F458FF1F2059FF1F2459FF1F540AFE4382
S1130F302C59FF1F1459FF1F1859FF1F1C59FF1F5D
S1130F40B400FF1F5C59FF1F6859FF1F2859FF1F7A
S1130F504C68000070B5002412E0CE480068205CA4
S1130F6001F0DAFEDFF8381A41F82400CB480068B3
S1130F70205C01F0D1FEDFF82C1A41F82400641C37
S1130F80322CEADB0021002200240023002500206B
S1130F90DFF8146A30600020DFF8006A3060002057
S1130FA0DFF8086A30600020DFF8046A306002204D
S1130FB000E0401C30281BDAB6490968411811F8D2
S1130FC0021C8C29F5DAB3490968411811F8011C8F
S1130FD08C29EEDAAF490968415C8C29E9DBAD491B
S1130FE00968411849788C29E3DBDFF8BC190860EB
S1130FF0022000E0401C30281ADAA649096841188A
S113100011F8011C8C29F5DBA2490968415C8C2983
S1131010F0DBA0490968411849788C29EADA9D492E
S11310200968411889788C29E4DADFF870190860B6
S1131030022000E0401C30281BDA98490968411856
S113104011F8021C1229F5DB94490968411811F8BA
S1131050011C1229EEDB91490968415C1229E9DA85
S11310608E490968411849781229E3DADFF83C19F6
S11310700860022000E0401C30281ADA8749096819
S1131080411811F8011C1229F5DA84490968415CF8
S11310901229F0DA81490968411849781229EADBF2
S11310A07E490968411889781229E4DBDFF80019C0
S11310B00860DFF8000900681F2874DBDFF8F8080F
S11310C00068401DDFF8EC18096888426BDADFF825
S11310D0E0080068032880F2DB80DFF8D0080068AD
S11310E00A38262880F0D4806C480068DFF8BC18E1
S11310F00968081810F8050C68490968DFF8AC2875
S11311001268511811F80A1C401A052190FBF1F0DD
S113111001F0F8FD0400DFF894080068051F19E0E9
S1131120DFF888080068281A401D01F0EBFD210053
S113113002F09AFCDFF86C18DFF87028126811EBE3
S1131140820151F8141C02F04DFCDFF8581841F8E4
S113115025006D1C322DE3DB0026322E80F29880B0
S1131160DFF8400850F82600DFF8501802F03AFC87
S113117002F0E6FC04000D00300002F045F9DFF84F
S11311804028DFF8403802F057F902000B00200035
S1131190290002F0FDFC02F045FBDFF8041841F8D9
S11311A02600761CD9E7DFF8100800681F286FDBDB
S11311B0DFF800080068401DDFF8FC170968884262
S11311C066DADFF8D8070068032861DADFF8D807A1
S11311D000680A3826285BD22E480068DFF8C81752
S11311E00968081810F8050C2A490968DFF8B827B7
S11311F01268511811F80A1C401A052190FBF1F0ED
S113120001F080FD0400DFF8A0070068051F19E065
S1131210DFF894070068281A401D01F073FD2100CF
S113122002F022FCDFF87817DFF87C27126811EB54
S1131230820151F8141C02F0D5FBDFF8641741F861
S113124025006D1C322DE3DB00261FE0DFF850077C
S113125050F82600DFF8701702F0C4FB02F070FCAF
S113126004000D00300002F0CFF8DFF85427DFF857
S1131270543702F0E1F822002B0002F049FD02F09D
S1131280D1FADFF8201741F82600761C322EDDDB78
S113129070BD0000A800FF1F0000F03FAC00FF1F5E
S11312A001000040E4B00020DFF8201708600020AF
S11312B0DFF81C1708600020DFF81817086000200A
S11312C0DFF8141708600020DFF81017086000200A
S11312D0DFF80C1708600020DFF808170860022008
S11312E044E0DFF804170968411811F8021CDFF81C
S11312F0F8261268821812F8012C52FA81F1DFF8EC
S1131300E82612688218527851FA82F1DFF8D8265A
S113131012688218927851FA82F1042291FBF2F158
S113132032AA42F82010DFF8C4160968411811F8EF
S1131330021CDFF8B8261268821812F8012C52FA3F
S113134081F1DFF8A82612688218527851FA82F1E6
S1131350DFF8982612688218927851FA82F10422F2
S113136091FBF2F100AA42F82010401C3028B8DBAF
S113137002200EE032A951F82010DFF86C26126822
S1131380815400A951F82010DFF8602612688154B6
S1131390401C3028EEDB0020DFF81816086000201F
S11313A0DFF81416086031202DE0DFF83C160968D8
S11313B0415C8D2905DADFF834160968415C12298D
S11313C006DADFF818160968491CDFF810261160E0
S11313D0DFF814160968415C8D2906DBDFF8D415A3
S11313E00968491CDFF8CC251160DFF8001609688C
S11313F0415C122906DADFF8C0150968491CDFF8D8
S1131400B8251160401E0128CFDA64B07047E0B5FA
S1131410DFF8DC050068DFF8DC1502F0D1FA11D83A
S11314206420029064200190DFF8CC0500680090ED
S1131430002300220021DFF808060068401E00F0A7
S113144033F82AE0DFF8A8050068DFF8B01502F0E9
S1131450B7FA11D86420029064200190DFF898054F
S113146000680090002300220021DFF8D405006802
S1131470801E00F019F810E06420029064200190AE
S1131480DFF8740500680090002300220021DFF8D3
S1131490B0050068C01E00F007F807BD0100C03F9A
S11314A05C57FF1F0C57FF1F2DE9F54F87B01C0039
S11314B0002512E0DFF8EC0450F82510DFF8E00412
S11314C050F8250002F08EFA5FF0804102F094FC9F
S11314D0DFF8681541F825006D1C322DEADB032581
S11314E00CE00299039802F07DFA5FF0804102F06B
S11314F083FCDFF8481541F825006D1C2F2D45DAD3
S1131500DFF8380510EB850050F80C0C0090DFF87C
S11315102C0510EB850050F8080C0190DFF81C0531
S113152010EB850050F8040C0290DFF8100510EB66
S1131530850040680390DFF8040510EB850080689F
S11315400490DFF8F80410EB8500C06805900022D1
S113155018E000A850F8230000A951F8221002F066
S1131560A9F90BD200A850F8226000A850F8230073
S113157000A941F8220000A840F823605B1C062B58
S1131580E7DB521C062AACDA1300F8E703250CE06B
S11315900299039802F026FA5FF0804102F02CFCD5
S11315A0DFF8981441F825006D1C2F2D45DADFF87B
S11315B08C0410EB850050F80C0C0090DFF87C04D0
S11315C010EB850050F8080C0190DFF8700410EB64
S11315D0850050F8040C0290DFF8600410EB8500DD
S11315E040680390DFF8540410EB85008068049091
S11315F0DFF8480410EB8500C0680590002218E06D
S113160000A850F8230000A951F8221002F052F962
S11316100BD200A850F8226000A850F8230000A9BB
S113162041F8220000A840F823605B1C062BE7DB8E
S1131630521C062AACDA1300F8E7DFF80004DFF8DE
S11316400414096850F82110DFF8F003DFF8F423DC
S1131650126810EB8200406802F0C4F9DFF8DC1372
S1131660DFF8E023126811EB8201896802F0BAF90D
S1131670DFF8C813DFF8CC23126811EB8201C968C4
S113168002F0B0F9DFF8B413DFF8B823126811EBF5
S11316908201096902F0A6F9DFF8AC1302F0ACFB91
S11316A00500DFF89803DFF89C13096810EB81004C
S11316B04169DFF88803DFF88C23126810EB82009D
S11316C0806902F08FF9DFF87413DFF87823126869
S11316D011EB8201C96902F085F9DFF86013DFF8C4
S11316E06423126811EB8201096A02F07BF9DFF8C6
S11316F04C13DFF85023126811EB8201496A02F09F
S113170071F9DFF8441302F077FB0600DFF82C03CD
S1131710DFF83013096810EB8100816ADFF81C03DD
S1131720DFF82023126810EB8200C06A02F05AF935
S1131730DFF80813DFF80C23126811EB8201096B40
S113174002F050F9DFF8F412DFF8F822126811EB16
S11317508201496B02F046F9DFF8E012DFF8E42277
S1131760126811EB8201896B02F03CF9DFF8D812A0
S113177002F042FB0700DFF8C402DFF8C812096870
S113178010EB8100C16BDFF8B402DFF8B8221268F5
S113179010EB8200006C02F025F9DFF8A012DFF8EC
S11317A0A422126811EB8201496C02F01BF9DFF8E4
S11317B08C12DFF89022126811EB8201896C02F01E
S11317C011F9DFF87812DFF87C22126811EB82013C
S11317D0C96C02F007F9DFF8701202F00DFB8046C5
S11317E0DFF868020068DFF86812096802F074F82C
S11317F0002102F05FF80DD2DFF854020068DFF830
S11318004C12096802F068F801F05AFADFF8441241
S113181008600CE0DFF834020068DFF8341209686D
S113182002F05AF801F04CFADFF828120860DDF8EB
S11318304890DDF84CA0DDF850B0200001F062FAC9
S1131840290002F011F90500484601F05BFA310065
S113185002F00AF9290002F0C5F80500504601F02B
S113186051FA390002F000F9290002F0BBF8050032
S1131870584601F047FA414602F0F6F8290002F012
S1131880B1F8050019EB04001AEB00001BEB000093
S113189001F038FA0100280002F0AEFA04004F20EB
S11318A0DFF8B4110860DFF8A4010068DFF8A011C4
S11318B00860DFF8A801210002F094F8DFF8A01115
S11318C00860DFF89401006801F01CFA01002000B0
S11318D002F002F8DFF874110860079801F012FAB8
S11318E0DFF86811096802F0BFF80100DFF874013D
S11318F001F0F2FF0400089801F004FA0500DFF893
S113190050010068DFF84411096801F0E5FF29007F
S113191002F0AAF8210002F065F80600300001F098
S1131920CFF980B20200DFF84813032001F02DFA4A
S1131930DFF84003310002F055F8060040F61C427F
S11319400021022003F066F83000DFF82C1301F0C8
S1131950B1FF06D240F6CA020021022003F05AF871
S113196014E03000DFF8141302F02AF806D840F629
S11319700A720021022003F04DF807E0300003F062
S1131980F1F802000021022003F044F809B0BDE898
S1131990F08F012800DA404270470000E458FF1F2E
S11319A07C55FF1F4456FF1FE058FF1FE858FF1FD8
S11319B0EC58FF1F5059FF1F5459FF1F0000BC4231
S11319C0A4703D0AD7A3F03F0000BCC23859FF1FE2
S11319D03C59FF1F4059FF1F4459FF1F3059FF1F37
S11319E04859FF1F4C59FF1FA800FF1FAC00FF1FE1
S11319F06859FF1F0100C8412C59FF1F010088418D
S1131A0038B50400642000FB01F52A00DFF87012E9
S1131A10032001F0BAF9012C02D0022C06D00AE00E
S1131A202A000421002002F0F5FF04E02A00072127
S1131A30002002F0EFFF31BD00000000B454FF1F8E
S1131A402059FF1FF458FF1F0000A0406059FF1FDA
S1131A506459FF1F5859FF1F3459FF1F00009EC2CD
S1131A605C59FF1F00C0414570B504000D0016000D
S1131A708C48006801F046F901008B48006801F0C9
S1131A8019FF04D2894800687E49086021E088482B
S1131A90006801F037F901008348006801F00AFF8B
S1131AA004D2844800687749086012E082480068DC
S1131AB001F028F901007C48006801F0FBFE04D223
S1131AC07E4800686F49086003E07D4800686D49FE
S1131AD008606D4800686D4908606D4800686D498C
S1131AE008606D4800686A4908606648006867498C
S1131AF00968401A684908606848006842F2283159
S1131B00884204DB654800686E4988421BDB6348F1
S1131B100068614909685E4A1268891A5E4A126857
S1131B2002FB05F201FB04215B4A1268584B1B6857
S1131B30B2EB4302574B1B689A1802FB06110818B4
S1131B405649086059E05448006851490968401AE8
S1131B505149096801FB05F100FB04104E4909686D
S1131B604B4A1268B1EB42014A4A1268511801FB10
S1131B700600002805D54948006842F22931884208
S1131B801CDA4548006842490968401A4249096814
S1131B9001FB05F100FB04103F4909683C4A126847
S1131BA0B1EB42013B4A1268511801FB06000128BF
S1131BB020DB3A480068444988421BDA3748006809
S1131BC035490968324A1268891A334A126802FB95
S1131BD005F201FB0421304A12682D4B1B68B2EB5D
S1131BE043022C4B1B689A1802FB061108182B4958
S1131BF0086002E000202949086028480068642140
S1131C0090FBF1F0264908602548026892B22F49FA
S1131C10032001F0BAF822480068002812D42048B2
S1131C2000681E2805DA1E4801680120FFF7E8FE57
S1131C3003E01E210120FFF7E3FE00210220FFF74D
S1131C40DFFE13E01648006810F11D0F06DB144890
S1131C50006841420220FFF7D3FE03E01E21022068
S1131C60FFF7CEFE00210120FFF7CAFE70BD000081
S1131C7014680000000082C300A00C4501A0704558
S1131C80586800008059FF1F2859FF1F8459FF1FFF
S1131C907859FF1F7C59FF1F7459FF1F6C59FF1F90
S1131CA07059FF1F1459FF1F6859FF1F8859FF1FE0
S1131CB01859FF1F8C59FF1F1C59FF1F9059FF1FF4
S1131CC09459FF1FD9DCFFFFD8DCFFFF64680000D4
S1131CD038B50400002502F0B1FF1D4800681D4915
S1131CE00968090F491C48430500E4B2002C06D0DA
S1131CF0012C0BD0032C11D0042C17D017E015485D
S1131D000068000F401CB5FBF0F511E011480068B5
S1131D10C0F30360401CB5FBF0F509E00D48006812
S1131D20C0F30340401CB5FBF0F501E000E00025E2
S1131D30280032BD0848006850F0807006490860E9
S1131D400648006850F0010004490860704700002C
S1131D50A000FF1F44800440FCED00E0001000E000
S1131D6080B5FFF7E7FF01BD704780B5FFF7FCFFC3
S1131D7001BD10B450F8041B81B102681218001D93
S1131D8050F8043BDC0744BFA9F10104E31852F8FE
S1131D90044B43F8044B091FF9D1EBE710BC70471F
S1131DA080B502220621022003F090F99349022013
S1131DB003F05EFA002305220621022003F094F9C1
S1131DC001220721022003F081F98C49022003F04B
S1131DD04FFA002304220721022003F085F902228E
S1131DE00221022003F072F90023002202210220C2
S1131DF003F07AF901220821022003F067F9012295
S1131E000921022003F062F901220A21022003F0D1
S1131E105DF901220B21022003F058F901220C2163
S1131E20022003F053F901220D21022003F04EF9A0
S1131E3001220E21022003F049F901220F21022080
S1131E4003F044F904220421022003F03FF90422A0
S1131E500521022003F03AF904220C21002003F0AA
S1131E6035F904220D21002003F030F904220E215B
S1131E70002003F02BF904220F21002003F026F99F
S1131E8004221021002003F021F90122162101204F
S1131E9003F01CF901221721012003F017F9012294
S1131EA01421012003F012F901221521012003F06D
S1131EB00DF95FF4E1314AF2D30001F0DDF90022BB
S1131EC0002148F2891002F058F800F01BF800F0E5
S1131ED07AF800F09BF800F07FF800F0BCF80123DA
S1131EE005220621022003F0FFF801230422072122
S1131EF0022003F0F9F8012300220221022003F05A
S1131F00F3F801BD10B58CB000A8302103F002FA3B
S1131F1000208DF8000033208DF8010000208DF89A
S1131F2006000120ADF802009820ADF80400344802
S1131F300390002005900020029000208DF81000EE
S1131F4000208DF8180000200A900120079000203E
S1131F508DF8240000208DF82C0000A803F0DEF991
S1131F60002003F0EEFA002404220021022003F0F2
S1131F70ADF804220321022003F0A8F804E0242190
S1131F80142003F05DFB0419E4B2002CF7D0E4B292
S1131F90012C0AD1C121702003F052FB0419F6E789
S1131FA02021242003F04CFB0419E4B2022CF7D0C6
S1131FB0E4B2032C05D1A021062003F041FB04194F
S1131FC0F6E70CB010BD80B50A23FA22002146F2D0
S1131FD0CA4002F00BFC01BD80B54FF47A7340F6A1
S1131FE0B8320021074802F001FC4FF47A7340F63E
S1131FF0B8320021044802F0F9FB01BD81620000FF
S113200091F00F4018492000184F380080B5042281
S11320100021042003F05AF804220121042003F0D3
S113202055F804220221042003F050F8042203216D
S1132030042003F04BF804220421042003F046F8A2
S113204004220521042003F041F80422062104207F
S113205003F03CF801BD80B55FF4E1314AF2D300EE
S113206001F00AF901BD50F8041B61B150F8042BCA
S1132070D30744BFA9F101039A18002342F8043B93
S1132080091FFAD1EFE77047C9B2DFF86423116082
S11320900021DFF860231160002109E00022DFF84D
S11320A058331A600122DFF854331A604000491C87
S11320B0C9B208290ADA0022DFF840331A6002069E
S11320C0ECD50122DFF830331A60EBE70120DFF8AA
S11320D0241308600120DFF818130860704770B5F6
S11320E0002414E00121DFF81803EDB26A1C8023F8
S11320F092FBF3F606FB132610EBC600E4B2205C59
S1132100FFF7C2FF6D1CEDB2802DEBDB641CE4B263
S1132110082C0FDA0021B4F15000C0B2FFF7B4FF6D
S113212000210220FFF7B0FF00211020FFF7ACFFD1
S11321300025E8E770BD80B500200CE0DFF8C02280
S1132140C9B212EBC102C0B200238354491CC9B204
S11321508029F3DB401CC0B2082801DA0021F6E72D
S1132160FFF7BDFF01BD30B40024C0B2802802DAFD
S1132170C9B2402900DB30E0C9B2082391FBF3F374
S1132180D3F10703C9B2082591FBF5F404FB151438
S11321900121D4F1070411FA04F4D2B2002A0ED0BA
S11321A09749C0B211EBC001DBB2954AC0B212EB41
S11321B0C0001A00D2B2105C204358540DE090497C
S11321C0C0B211EBC001DBB28D4AC0B212EBC00049
S11321D01A00D2B2105CA043585430BC70472DE9A9
S11321E0F84F05000E0090461F008DF80060B8F10E
S11321F020085FF000090A9C16E00022D2B23100E8
S1132200C9B22800C0B2FFF7AEFF5FEA4B0B761CE1
S1132210F6B29DF80000301AFFB2B84223D19DF8FF
S113222000606D1C19F101095FFA89F9FFB2B94523
S113223031D2FFB20C2F0AD172485FFA88F80C2110
S113224001FB08005FFA89F919F800B008E06E484C
S11322505FFA88F810EB08105FFA89F919F800B0F2
S11322605FF0000A01E01AF1010A5FFA8AFABAF192
S1132270080FD7DA5FEA0B6008D52200D2B231002A
S1132280C9B22800C0B2FFF76EFFBEE7E4B2002C6B
S1132290B3D10122B2E7BDE8F18FF8B504000D0017
S11322A016001F000BE0FFB200970C2332782900C0
S11322B0C9B22000C0B2FFF792FFA41D761C30788B
S11322C00028F0D1F1BD002000E0401CB0F57A7F79
S11322D00BD2002104E0521CD2B2C82AFBDB491CF9
S11322E0C9B2C829F1DA0022F6E7704780B50120A7
S11322F042490860002045490860FFF7E4FF0120D7
S1132300424908600021AE20FFF7BEFE0021D5201F
S1132310FFF7BAFE00215020FFF7B6FE0021A820E7
S1132320FFF7B2FE00213F20FFF7AEFE0021D320CD
S1132330FFF7AAFE00210020FFF7A6FE002140209F
S1132340FFF7A2FE00218D20FFF79EFE002114203E
S1132350FFF79AFE00212020FFF796FE00210220BD
S1132360FFF792FE0021A120FFF78EFE0021C0207E
S1132370FFF78AFE0021DA20FFF786FE00211220F3
S1132380FFF782FE00218120FFF77EFE0021EF206F
S1132390FFF77AFE0021D920FFF776FE0021F12015
S11323A0FFF772FE0021DB20FFF76EFE00213020D4
S11323B0FFF76AFE0021A420FFF766FE0021A62095
S11323C0FFF762FE0021AF20FFF75EFEFFF7B3FECA
S11323D001230F4A00210020FFF75FFFFFF77FFE74
S11323E000200C49086001200B49086001BD000071
S11323F03400FE433000FE434000FE433C00FE43F5
S1132400B450FF1F0C5E00001C5800003800FE434F
S1132410706800001010FE431410FE432DE9F84FBD
S1132420002000255FF0000E0021002200235FF051
S1132430000C5FF000095FF0000A5FF0000BDFF8AA
S1132440D8673668DFF8D4773F683F78BE5D982E4A
S113245036D0DFF8C4070068DFF8C0572D682D7840
S1132460285C00282CD0DFF8B407006800780F2817
S113247026DADFF8AC07DFF8A4572D682D78285C3E
S1132480401CDFF894572D68DFF89067366836787B
S1132490755DA84210DADFF880070068DFF87C5722
S11324A02D682D78285CDFF87857DFF87067366878
S11324B03678755D451B00E0012515F108063AE004
S11324C0DFF860070068DFF860572D682D78285C16
S11324D000282DD0DFF85007006800780F2827DA8D
S11324E0DFF840070068DFF840572D682D78285C36
S11324F0DFF82C57DFF8306736683678755D2818B2
S113250000B2872801DB86250FE0DFF81807006892
S1132510DFF814572D682D78285CDFF80457DFF8AE
S1132520086736683678755D2D1815F1080602E0DF
S11325304F2515F10806DFF8EC060068DFF8E876A9
S11325403F683F78385C002835D0DFF8DC06006847
S113255000780F282FDADFF8CC060068DFF8C87699
S11325603F683F78385CDFF8B876DFF8BCE6DEF821
S113257000E09EF800E01EF80770381800B28B28BF
S113258014DADFF8A0060068DFF89C763F683F782D
S1132590385CDFF88C76DFF890E6DEF800E09EF831
S11325A000E01EF8077017EB000E01E05FF08B0EE1
S11325B01EF1080842E0DFF860060068DFF85C7688
S11325C03F683F78385C982834D0DFF850060068BC
S11325D000780F282EDADFF84806DFF840763F68E7
S11325E03F78385C401DDFF830763F68DFF82CE632
S11325F0DEF800E09EF800E01EF80770B84214DA36
S1132600DFF814060068DFF814763F683F78385C1A
S1132610DFF80C76DFF804E6DEF800E09EF800E070
S11326201EF80770B0EB070E01E05FF0050E1EF117
S1132630080803E05FF04F0E1EF10808002008E0D0
S11326400027DFF8E095D9F80090C0B200F80970CF
S1132650401CC0B2322880F27C82DFF8D0753F681B
S1132660C0B25FF0980909FB0077C0B2002800F0FF
S11326708281451E00E06D1EEDB2002D0BD0C0B26C
S1132680EDB2461B052E06DADFF88C653668EDB22E
S1132690AE5D982EEFD0DFF880653668EDB2AE5DA2
S11326A0982E63D0DFF87865EDB2AE5DDFF868E5AB
S11326B0DEF800E0EDB215F80EE0764536D2DFF82C
S11326C064653668C0B2861916F8016C002E21D0F4
S11326D0DFF844653668EDB2AE5DDFF844E5EDB28F
S11326E015F80EE0B6EB0E06DFF838E5DEF800E08C
S11326F0C0B210EB0E0E1EF801EC1EF1050E76456D
S113270008DADFF820552D68C0B2451915F8015CC8
S11327106D1D28E0DFF800653668EDB2AE5DDFF8C8
S113272000E5EDB215F80E50751B1CE0DFF8F4540B
S11327302D68C0B2451915F8015C002D12D0DFF8E0
S1132740E4542D68C0B2451915F8015C6D1D902D37
S113275008DADFF8D0542D68C0B2451915F8015CC9
S11327606D1D00E0012515F1080623E0DFF8B454DF
S11327702D68C0B2451915F8015C002D17D0DFF89B
S1132780A4542D68C0B2451915F8015C6D1D2DB215
S1132790872D01DB862507E0DFF888542D68C0B259
S11327A0451915F8015C6D1D15F1080602E04F2569
S11327B015F10806B0F1010E01E0BEF1010E5FFA59
S11327C08EFEBEF1000F12D0C0B25FFA8EFEB0EBE7
S11327D00E08B8F1050F0ADADFF84884D8F800804B
S11327E05FFA8EFE1EF80880B8F1000FE5D0DFF81E
S11327F03484D8F800805FFA8EFE1EF80880B8F1A1
S1132800000F00F08B80DFF81C84D8F800805FFA9A
S11328108EFE1EF80880DFF808945FFA8EFE1EF81C
S1132820099019EB08080FFA88F8B8F18B0F49DA08
S1132830DFF8E483D8F80080C0B210EB080818F879
S1132840018CB8F1980F2CD0DFF8CC83D8F8008035
S1132850C0B210EB080818F8018CB8F10D08DFF8C5
S1132860C493D9F800905FFA8EFE1EF80990DFF841
S1132870B0A35FFA8EFE1EF80AA01AEB09090FFA3C
S113288088F80FFA89F9C8450BDADFF88CE3DEF82B
S113289000E0C0B210EB0E0E1EF801ECBEF10D0EFE
S11328A039E0DFF88083D8F800805FFA8EFE1EF8E6
S11328B00880DFF86C935FFA8EFE1EF809E01EEBC9
S11328C0080E28E0DFF850E3DEF800E0C0B210EBB9
S11328D00E0E1EF801ECBEF1980F02D15FF08B0EC4
S11328E019E0DFF834E3DEF800E0C0B210EB0E0EBE
S11328F01EF801ECBEF10E0F0BDBDFF81CE3DEF873
S113290000E0C0B210EB0E0E1EF801ECBEF10D0E8D
S113291001E05FF04F0E1EF108082CE0DFF8F8E24A
S1132920DEF800E0C0B210EB0E0E1EF801ECBEF1B2
S1132930980F1CD0DFF8E0E2DEF800E0C0B210EB44
S11329400E0E1EF801ECBEF1130F0BDBDFF8C8E22C
S1132950DEF800E0C0B210EB0E0E1EF801ECBEF182
S11329600D0E01E05FF0050E1EF1080803E05FF0B4
S11329704F0E1EF108080FFA8EFEBEF1010F10DA99
S113298036B2982E79DBC9B2002900F0CB80002141
S1132990A14F3F68C0B2C455CCE0BEF1010EB8F1FE
S11329A001080FFA8EFEBEF1010FE9DBD2B2002A54
S11329B0E6D10FFA8EFE1EF8079019F132090FFACC
S11329C088F818F807A0D145E7DA0FFA8EFE1EF84A
S11329D0079019F132090FFA88F818F807A0D145C1
S11329E016DA0FFA8EFEBEF1010F11DB0FFA88F82A
S11329F018F80790B9F1FF0F01DA1CF1010CBEF1D0
S1132A00010EB8F101085FFA8CFCBCF1020FDCDBAB
S1132A105FFA8CFCBCF1020F2ADB1EF102098DF86F
S1132A2000905FF0000C5FF0000B5FF0000910E015
S1132A300FFA8EFE1EEB070A5FFA89F919EB0A0AF0
S1132A409AF802A0BAF16F0F01DB1BF1010B19F127
S1132A5001095FFA89F9B9F10A0FE9DB5FFA8BFB27
S1132A60BBF1070F01DB01229BE75FF0000C98E745
S1132A705FF0000C95E76D1C761C36B2982E82DA56
S1132A80C9B200297FF47FAF36B216F8079019F166
S1132A9032092DB215F807A0D145ECDA36B216F892
S1132AA0079019F132092DB215F807A0D1450EDAB5
S1132AB036B2982E0BDA2DB215F80790B9F1FF0F44
S1132AC000DA5B1C6D1C761CDBB2022BE6DBDBB28E
S1132AD0022B25DB33009C1E00235FF0000B5FF00C
S1132AE0000A0FE036B216EB07095FFA8AFAB9EB6F
S1132AF00A0919F8029CB9F16F0F01DB1BF1010BF4
S1132B001AF1010A5FFA8AFABAF10A0FEADB5FFAEC
S1132B108BFBBBF1070F01DB0121AEE70023ACE720
S1132B200023AAE79827DFF8F090D9F80090C0B204
S1132B3000F80970D2B2002A3FF482AD00229DF859
S1132B400070DFF8E090D9F80090C0B200F8097086
S1132B507EE5BDE8F18F38B500240025002004008F
S1132B6030E02D480068A4B2205C982811D02A488F
S1132B700068A4B2205C00280BD0012214F10E01DD
S1132B80C9B22B48244B1B68A4B2E35C185CFFF762
S1132B90EAFA24480068A4B2205C002811D0214835
S1132BA00068A4B2205C98280BDA012214F10E010B
S1132BB0C9B21F481B4B1B68A4B2E35C185CFFF747
S1132BC0D2FA641CA4B2322C22DA002509E00122D4
S1132BD014F10E01C9B21648ADB2285CFFF7C3FA6E
S1132BE06D1CADB2982DBCDA10480068A4B29821CF
S1132BF0ADB201FB0451085C6F28E8DB002214F13C
S1132C000E01C9B20A48ADB2285CFFF7ACFAE7E797
S1132C10FFF765FA31BD0000A800FF1FAC59FF1F84
S1132C20A4650000AC00FF1FB059FF1FA859FF1F87
S1132C300000FF1F02211C4AC0B24FF4205303FBC3
S1132C40002289B28A18194B1A6001F5E851B03193
S1132C50154AC0B24FF4205303FB002289B28A18EC
S1132C60134B1A603231104AC0B24FF4205303FBA5
S1132C70002289B28A180F4B1A6032310A4AC0B254
S1132C804FF4205303FB002289B28A180A4B1A60BE
S1132C90054AC0B24FF4205303FB002089B2081840
S1132CA0401C064908607047B400FF1FA859FF1F65
S1132CB0A800FF1FAC00FF1FAC59FF1FB059FF1F36
S1132CC04100090E7F3915D4D1F11F0114D44000FD
S1132CD007D2C00140F00040C84048BF6FF0004038
S1132CE07047C00140F00040C8404CBF4FF0004066
S1132CF0404270470020704700424FF0004058BFE8
S1132D00C0437047002840F10980F446404200F077
S1132D1005F850F000406047002800BF0AD0B0FA20
S1132D2080F18840D1F19D01C905020672F100428B
S1132D3041EB10207047000038B504000D0005E099
S1132D40297889B2200000F052FA6D1C28780028F6
S1132D50F6D131BD38B504000D00B4FBF5F0002800
S1132D6004D0B4FBF5F02900FFF7F4FFB4FBF5F051
S1132D7005FB1040DFF838160968415C89B2DFF8BA
S1132D802C06007800F033FA31BD0EB478B5040097
S1132D9006AD05E0F6B2310089B2200000F027FA52
S1132DA0059806780598401C05903000C0B2252887
S1132DB006D0F6B2002EEDD1002072BC5DF810FBF7
S1132DC0059806780598401C0590F6B2642E02D04A
S1132DD0F6B26C2E03D10A212868FFF7BBFFF6B2C6
S1132DE06F2E02D0F6B2782E08D1F6B26F2E01D132
S1132DF0082100E010212868FFF7ACFFF6B2732E1B
S1132E0003D129682000FFF797FF2D1DC8E770B58F
S1132E1004000120FEF75CFF2179002902D021790A
S1132E20012902D10020FEF753FF2060DFF884055A
S1132E3021790C2202FB010000680068DFF8741598
S1132E4022790C2303FB021149680843DFF8641557
S1132E5022790C2303FB021109680860DFF8580586
S1132E60217950F82100DFF85015227951F8221009
S1132E70C97811F0F301C1702068A1680901B0FBA1
S1132E80F1F021684901A2681201B1FBF2F180B2AC
S1132E904201891ADFF82025237952F82320127879
S1132EA012F0E002DFF81035257953F825301A7056
S1132EB0DFF80425237952F823205278DFF8F83418
S1132EC0257953F8253000255D70DFF8EC34257939
S1132ED053F82530DFF8E054267955F82650AD7ABA
S1132EE015F0E0059D72DFF8D034257953F82530CC
S1132EF01B7880B2050A15F01F052B43DFF8B85480
S1132F00267955F826502B70DFF8AC34257953F820
S1132F1025305870DFF8A004237950F82300DFF837
S1132F209834257953F825309B7A11F01F01194301
S1132F308172207B002804D002281FD003283AD0B5
S1132F4056E0DFF87404217950F82100DFF86814A2
S1132F50227951F82210897811F0FD018170DFF88F
S1132F605804217950F82100DFF84C14227951F8E3
S1132F702210897811F0EF01817039E0DFF838040C
S1132F80217950F82100DFF83014227951F8221009
S1132F90897851F002018170DFF81C04217950F81E
S1132FA02100DFF81414227951F82210897811F0E5
S1132FB0FE0181701CE0DFF80004217950F8210043
S1132FC0DFF8F413227951F82210897851F00201C4
S1132FD08170DFF8E403217950F82100DFF8D81379
S1132FE0227951F82210897851F001018170FFE7AC
S1132FF0607B002802D0012842D083E0DFF8B803C8
S1133000217950F82100807880071CD5DFF8A803C7
S1133010217950F82100DFF8A013227951F8221009
S1133020897851F010018170DFF88C03217950F810
S11330302100DFF88413227951F82210897A11F0E3
S1133040DF0181721BE0DFF87003217950F8210061
S1133050DFF86413227951F82210897811F0EF0116
S11330608170DFF85403217950F82100DFF8481308
S1133070227951F82210897A11F0DF01817241E03E
S1133080DFF83403217950F82100807880071CD5BB
S1133090DFF82403217950F82100DFF81C1322798A
S11330A051F82210897851F010018170DFF808037B
S11330B0217950F82100DFF80013227951F8221009
S11330C0897A51F0200181721BE0DFF8EC0221794A
S11330D050F82100DFF8E012227951F822108978A3
S11330E051F010018170DFF8D002217950F82100ED
S11330F0DFF8C412227951F82210897A11F0DF0125
S11331008172FFE7DFF8B002217950F82100DFF87F
S1133110A812227951F82210497911F0DF01417186
S1133120DFF89402217950F82100DFF88C1222791B
S113313051F82210C97851F00C01C170DFF87C02FB
S11331400078002803D02079DFF86012087000208E
S1133150DFF86812087070BDC9B200290DD0DFF81D
S1133160581251F82010097C51F08001DFF84822F0
S113317052F820000174C9B20CE0DFF83C1251F897
S11331802010097C11F07F01DFF82C2252F8200076
S11331900174C9B27047C9B200290DD0DFF8181202
S11331A051F82010097C51F00801DFF80C2252F884
S11331B020000174C9B20CE0DFF8FC1151F82010B2
S11331C0097C11F0F701DFF8F02152F820000174B6
S11331D0C9B27047DFF8E811DFF8DC2152F82000AB
S11331E0007CC0F30210C0B251F82000704770B5E3
S11331F004000D00DFF8C00150F82400007C000634
S11332000BD5DFF8B40150F82400067D2000FFF749
S1133210E1FFF6B2864207D3F3E7DFF89C0150F8EA
S1133220240000790006F8D5DFF88C0150F824005A
S1133230C571ADB2280A10F00100C0B200280DD04B
S1133240DFF8740150F82400807950F04000DFF872
S1133250681151F824108871C0B20CE0DFF85801ED
S113326050F82400807910F0BF00DFF84C1151F8B9
S113327024108871C0B270BD31B584B004AC029121
S1133280207810F007008DF8040000208DF80C0061
S113329000208DF80D0000250FE02068800910F053
S11332A007022068400A10F01F002918C9B22068DC
S11332B0C0F3C20001F09AFD6D1C2068C0F3843095
S11332C0EDB2C0B28542E8D300A8FFF7A0FD00210B
S11332D0207810F00700FFF73FFF0021207810F05E
S11332E00700FFF758FF207810F0070005B030BD45
S11332F01CB50400304850F824000079000615D5A8
S11333002D4850F82400C07800060FD52D4850F8F9
S11333102400002804D000A82A4951F82410884722
S1133320BDF80000244951F82410C871224850F80F
S113333024000079800616D51F4850F82400C07870
S1133340800610D51C4850F82400C079ADF8000060
S11333501D4850F82400002805D0BDF800001A4983
S113336051F824108847144850F8240000790007C5
S113337004D5114850F82400C07901900E4850F843
S113338024000079C0060FD50B4850F82400C079FA
S113339001900D4850F82400002805D04FF6FF7026
S11333A0094951F82410884713BD0000BC59FF1F78
S11333B0A400FF1F5C650000AC670000B000FF1FA5
S11333C04C6700005458FF1F6C58FF1F80B5002045
S11333D0FFF78EFF01BD80B50120FFF789FF01BD16
S11333E080B50220FFF784FF01BD80B50320FFF7FD
S11333F07FFF01BD80B50420FFF77AFF01BD80B5D2
S11334000520FFF775FF01BD010040F10980F44676
S1133410404200F005F851F000416047010000BF50
S113342009D0B0FA80F18840C91CC1F5846109054E
S113343001EBD02140057047B0B581EA030C0CF0D4
S1133440004C40F2FF7515EA11541DBF15EA1357DD
S1133450AC42AF4239E0E41923EA455343F4801304
S1133460C90241F0004141EA505EC7021100A7FBC6
S1133470020200284FF00000EEFB01204FF0000193
S1133480E3FB072118BF42F0010240180021494123
S1133490E3FB0E01A4F580640F0302D25200404105
S11334A0494154F101046CDD470872F1004250F1C6
S11334B0000051EB0451A1F580115CBF41EA0C01FD
S11334C0B0BD4CEA05510020B0BD05EA1357AC422B
S11334D014BFAF4241E050EA410E1CBF52EA430E12
S11334E002E061460020B0BD24423C441BD15FEAA7
S11334F0070EF6D0090302BF01460020AEF1140EF8
S1133500B1FA81F7AEEB070401FA07FE0C37C7F1F5
S1133510200100FA07F7C8404EEA000E23EA45539B
S113352043F48013A2E733F00043B3FA83F704BFF4
S1133530B2FA82FE77440B3FE41BB7F1200E2FBF93
S113354002FA0EF3BB40C7F1200E22FA0EFE38BF7A
S113355043EA0E03BA40641C82E750EA410E14BFEA
S113356052EA430E6FF000014FF4001717EB430FBC
S11335708ABF194617EB410FB5E74CEA0551002005
S1133580B0BDD4F10104B4F120070FDAC4F120076F
S1133590520828BF42F0010210FA07F501FA07F7B2
S11335A0E1BF2A43E0403843E1400FE0352C98DC8A
S11335B0C7F1200452EA400220FA07F218BF42F091
S11335C0010231FA07F0A1400A43002172F10042DE
S11335D050F1000051EB0C01B0BD0000F0B540F219
S11335E0FF7581EA030C0CF0004C15EA11541DBF61
S11335F015EA1357AC42AF42E5E0BC41C1F31301F5
S1133600C3F31303801A994143F4801304D2641E54
S11336104000494180185941C90241EA5051B1FB67
S1133620F3F603FB1611A2FB0675D7EBC020A941E4
S113363002D2761E80185941C90241EA5051B1FBA9
S1133640F3FE03FB1E11A2FB0E75D7EBC020A941AC
S113365003D2AEF1010E80185941890241EA90511A
S1133660760546EA8E2EB1FBF3F603FB1611A2FB98
S11336700675D7EB8020A94102D2761E80185941E5
S1133680C90241EA50514EEA060EB1FBF3F603FBC0
S11336901611A2FB0675D7EBC020A94102D2761EF3
S11336A080185941C90241EA5051B1FBF3F703FBB9
S11336B01711A2FB0735D3EBC020A94167F100071E
S11336C00CBF004247F0010766F3D5274FEA1E31CD
S11336D0B80814F5806412DDBD0775F1004250EBA3
S11336E00E5051EB045111F5801F5CBF41EA0C01EF
S11336F0F0BD4CF07F6141F0E0410020F0BDBD071A
S11337006D0840EA0E5041F48011D4F10104B4F183
S113371020060ADAC4F120060200E04001FA06F3AA
S1133720E1401843B24015430EE0342C13DCC6F1DB
S1133730200445EA40056D0820FA06F2154321FAF3
S113374006F0A1400D43002175F1004250F1000044
S113375051EB0C01F0BD00205FEA0C01F0BDCFB9C4
S113376092185B41B3FA83F704BFB2FA82F6BF1929
S11337700B3FB7F120062FBF02FA06F3BB40C7F197
S1133780200622FA06F638BF3343BA401CB1E419C6
S1133790641E33E77F4231F00041B1FA81F404BF83
S11337A0B0FA80F6A4190B3CB4F120062FBF00FA3E
S11337B006F1A140C4F1200620FA06F638BF3143D1
S11337C0A0403C1B1AE7AC421ABF05EA1357AF42AC
S11337D012E050EA41061CBF52EA4306BFE750EA32
S11337E04107304661461CBF41EA0551F0BD52EA2B
S11337F0430C08BFC143F0BD00204FF4001616EB84
S1133800410F98BF16EB430F08BF16EB410F24BFBF
S1133810C14305E016EB430F0CBF61464CEA05516A
S1133820F0BD00004FEAF17CBCF1E04C2CBFBCF5CC
S1133830001F11E05FEA4C0C34BFBCF17F5F2EE047
S11338405FEA9C0C4FEA0C1C4FEA3C0CC10071F17E
S113385000414CEB50707047C90241EA5051C0021C
S113386018BF41F0010141F000414FEA6C50C0F132
S11338700900212810D240EACC7CCCF1200C11FAAA
S11338800CF070F10040CCF1200C21FA0CF00CF09B
S1133890004C40EB0C0070474FEACC707047490075
S11338A011F5001F04D84FEACC10FF30C005704753
S11338B0C81770474FF0807C1CEB400F94BF1CEB83
S11338C0410F05E040EA010C5FEA4C0C01D288424A
S11338D0704718BF8142704790EA010F44BF81F0DE
S11338E0004100F087B800BF431A4FF000423EBFCA
S11338F05340C01AC91800BFD3095FEAD05C13EB68
S1133900400F34BFB3EB410F40E07CEBD1530CD3F9
S113391042EA012122D8D1EB402009D3400A28BF32
S11339205FEA500140EBCC507047401A15D040027A
S1133930B0FA80F2521C9040400A4FEA3C23B3EBA9
S1133940026384BF00EB730007E040F400001A1622
S1133950DB07C2F10102D04018437047182BFCDC8E
S113396031FA03F202FA03F3591A38BF42F00102A2
S1133970D2EB40203CBF4000ACF1010C5FEACC5CD0
S1133980C20572F100414CEB5020704713EB400F1D
S11339900FD24B0009D0ACEBD153022B03DB49020D
S11339A0172BDDDD70479143401A4300D5D1002029
S11339B0704713EB410FD0D36FF000007047000045
S11339C04FF0807C1CEB400F94BF1CEB410F05E0D3
S11339D040EA010C5FEA4C0C01D28142704718BFE7
S11339E08842704790EA010F44BF81F00041FFF71D
S11339F07BBF00BF421A3CBF801A89184FF0004CAD
S1133A00C0F3C752FF2A24D0C1F3C75313B3D21A49
S1133A10D2F1190327DD4CEA01214CFA03F321EA20
S1133A200303D140C20D4CEA0020401834BF20EA01
S1133A300C004CEA5000D20553EA006373EB0C0C03
S1133A4052EB1020420012F1807F38BF7047C00D46
S1133A50C0057047490212BF9A4200EB5120F8E7B3
S1133A60D2F11703D9D57047FF2212EAD05C1DBFEB
S1133A7012EAD153944593422BE09C44D30780EA45
S1133A8001021A4043EA002043EA0121A1FB00306D
S1133A90410038BF40007CF17F010BDBFE294ADA8C
S1133AA05B0842EAC15153EA006373F1004C51EBE5
S1133AB010207047D1F1080CDCF120012FDB5B08EA
S1133AC010FA01F10B4373F1004120FA0CF050415C
S1133AD0704794451CBF02EAD153934280EA010225
S1133AE002F000421DD0400019D0490017D05BB944
S1133AF0634514D00902B1FA81F39940BCEB030C7D
S1133B00C00140F00040C1E70002B0FA80FC10FAA6
S1133B100CF0B3EB0C0CC90141F00041B6E7100006
S1133B20704740000AD0490008D010F1807F94BF4C
S1133B3011F1807F02E042F0FF407047D0437047AC
S1133B405FF0FF0C1CEAD05114BF614506E0C110C0
S1133B50400721F0E04101F16051704779B900F06C
S1133B60004100020AD0B0FA80FC00FA0CF001F126
S1133B706051A1EB0C5101EBD0214005704741028B
S1133B800CBF40F4E0016FF000010020704700001A
S1133B9070B44FF0004591EA030F44BF6B4000F04E
S1133BA0C1B800BF841A71EB030604D26E40001B37
S1133BB0B141121973414FF4001C1CEB410F34BF87
S1133BC07CEB430684E00C0DA4EB1356362E7DDC0F
S1133BD0012E43DC45EAC32343EA525312BFD20207
S1133BE092025B08240545EAC12141EA5051D2EB17
S1133BF0C020994125D407D1B0FA80F610FA06F115
S1133C0064D00020203608E0B1FA81F6B140C6F154
S1133C10200220FA02F21143B0404FEAF474B4EBEC
S1133C20465434F001064FEA74040AD8D6F5001657
S1133C30760D04F00044F04061FA06F25040F14081
S1133C404840C00A40EA415021F0004128BF5FEAE1
S1133C50500550F1000044EBD12137E045EAC3237D
S1133C60DB0A45EAC121C90AB6F120050EDD42EAA4
S1133C700242120CC5F1200603FA06F6EB4042EAB2
S1133C8006056D42984161F100010DE062FA06F506
S1133C90F240554063FA06FC82EA0C02F3405A40B3
S1133CA06D42904161EB030111F4801F05D1641E44
S1133CB0620502D06D004041494121F4801143085E
S1133CC075F1004350F1000041EB045170BC7047A2
S1133CD01CEB410F15D223F0004352EA43060BD0EC
S1133CE04FEA4C0CBCEB410F04D80C0D661E342E6D
S1133CF0B7DDEBE7801A994150EA410608BF00217D
S1133D00E4E708BF1CEB430F28BF6FF00001DDE7B9
S1133D1070B44FF0004591EA030C44BF6B40FFF7C9
S1133D2041BF00BF841A71EB030603D2001BB141EB
S1133D30121973414FF4001C1CEB410F34BF7CEB90
S1133D40430443E00C0DA4EB1356352E50DC45EA36
S1133D50C323DB0A45EAC121C912B6F120050DDDF2
S1133D6063FA05F6EB4086EA0305124218BF45F0F4
S1133D700105C01851F100010CD213E062FA06F5F6
S1133D80F2405540F3415A40B340F3405A40801842
S1133D90594107D349085FEA30005FEA350528BF77
S1133DA045F0010501F58011420875F1004250F11A
S1133DB0000041EB045170BC4FF4001C1CEB410F9C
S1133DC038BF70470020090D090570471CEB410FEF
S1133DD010D252EA43060BD0BCEB410F05D80C0DB0
S1133DE0AB43661E342EB5DD02E0AB438018594167
S1133DF070BC704770BC704710B5FF2313EAD054F1
S1133E001DBF13EAD1529C429A4239E0A41ADA0740
S1133E1080EA0103134042EA012142EA0020421AE7
S1133E203CBF641E01EB4202090AB2FBF1FE01FB36
S1133E301E221202B2FBF1F001FB10226EF30F20DE
S1133E401202B2FBF1FE4EEA00207F3406DDFE2CA6
S1133E5024DA53EA500050EBC45010BDD4F10204EC
S1133E6001FB1E2240F08071192C1DDC21FA04F0A4
S1133E70C4F12004A140114371F10042584110BD26
S1133E809C421ABF03EAD1529A420FE080EA010E23
S1133E900EF00043400004D0490016D143F0FF4027
S1133EA010BD490008BFD343180010BD9C4205D182
S1133EB0D21AF7D001F00041484010BD4A0212BFA7
S1133EC00846484000F0004010BD4AB90902B1FA62
S1133ED081F2914044B1A418C00140F000409EE733
S1133EE0C90141F0004152420002B0FA80F4A040FE
S1133EF0141B94E710B4DFF8C02B0C2303FB00223F
S1133F0012681268DFF8B03B0C2404FB00335B68D2
S1133F101A43DFF8A43B0C2404FB00331B681A602B
S1133F200022DFF8983B53F820301A60DFF88C2B1E
S1133F3052F82020526D52F00402DFF8803B53F80F
S1133F4020305A650022DFF8743B53F820305A6061
S1133F500022DFF8683B53F82030DA64DFF85C2B8A
S1133F6052F8202091605FF0FF31DFF8502B52F8B7
S1133F702000C0F8981010BC704771B581B00E00D5
S1133F80150001AC04224FF6FF71207810F00700F1
S1133F90FFF7B0FF05220021207810F0070000F0A1
S1133FA039F9F6B2002E02D0012E29D051E0DFF803
S1133FB00C0B217811F0070150F82100DFF8FC1AEE
S1133FC0227812F0070251F82210D1F8801031F053
S1133FD02001C0F88010DFF8E40A217811F007010D
S1133FE050F82100DFF8D41A227812F0070251F8B1
S1133FF02210D1F8801031F01001C0F8801028E0B0
S1134000DFF8B80A217811F0070150F82100DFF831
S1134010AC1A227812F0070251F82210D1F880105D
S113402051F02001C0F88010DFF8900A217811F0D7
S1134030070150F82100DFF8841A227812F00702F1
S113404051F82210D1F8801051F01001C0F88010FE
S1134050FFE7EDB2002D02D0012D15D029E0DFF8E5
S11340605C0A217811F0070150F82100DFF84C1A9E
S1134070227812F0070251F82210D1F8801031F0A2
S11340800801C0F8801014E0DFF8300A217811F03C
S1134090070150F82100DFF8241A227812F00702F1
S11340A051F82210D1F8801051F00801C0F88010A6
S11340B0FFE7002527E02068800910F00702206848
S11340C0400A10F01F002918C9B22068C0F3C200CA
S11340D000F08CFE01222068400A10F01F0029180D
S11340E0C9B22068C0F3C20000F0B2FE0122206809
S11340F0400A10F01F002918C9B22068C0F3C2009A
S113410000F011FF6D1C2068C0F38430EDB2C0B222
S11341108542D0D3207810F0070076BDC0B20028C5
S113412002D0C0B2012801D1002010E0C0B20228A0
S113413002D0C0B2032801D1012008E0C0B2042893
S113414002D0C0B2052801D1022000E0032070474C
S113415070B5040008001D000021D2B2002A08D066
S1134160022A18D00ED3042A27D01DD3052A2DD015
S113417035E00126C0B2FFF7D1FFC0B2C00016FA85
S113418000F12CE00226C0B2FFF7C8FFC0B2C000A5
S113419016FA00F123E00426C0B2FFF7BFFFC0B255
S11341A0C00016FA00F11AE01026C0B2FFF7B6FFFD
S11341B0C0B2C00016FA00F111E02026C0B2FFF729
S11341C0ADFFC0B2C00016FA00F108E04026C0B24C
S11341D0FFF7A4FFC0B2C00016FA00F1FFE7EDB28A
S11341E0012D0BD1DFF8D40850F82400406E0843A9
S11341F0DFF8C81851F8241048660AE0DFF8BC0854
S113420050F82400406E8843DFF8B01851F82410A9
S1134210486670BD38B504000D00D2B2002A0CD037
S1134220022A00F0AE8171D3042A00F0C080C0F0ED
S11342302181052A00F02C8287E2DFF8800850F8FB
S11342402400406D40084000DFF8701851F8241035
S11342504865DFF8680850F82400D0F8800040086A
S11342604000DFF8581851F82410C1F88000DFF836
S11342704C0850F82400006830F02000DFF83C18A7
S113428051F824100860DFF8340850F82400EDB227
S113429010EBC500DFF8241851F82410EDB211EB2F
S11342A0C501C96851F03001C16000222900C9B2BA
S11342B0200000F04BFA002300222900C9B220009C
S11342C0FFF746FF002301222900C9B22000FFF7AF
S11342D03FFF002302222900C9B22000FFF738FF64
S11342E0002303222900C9B22000FFF731FF002375
S11342F004222900C9B22000FFF72AFF0023052267
S11343002900C9B22000FFF723FF1EE2DFF8AC0743
S113431050F82400406D40084000DFF8A01751F821
S113432024104865DFF8940750F82400D0F8800082
S113433040084000DFF8841751F82410C1F88000C9
S1134340DFF8780750F82400006850F02000DFF808
S11343506C1751F824100860002300222900C9B208
S11343602000FFF7F5FE002301222900C9B2200036
S1134370FFF7EEFE002302222900C9B22000FFF756
S1134380E7FE002303222900C9B22000FFF7E0FE64
S1134390002304222900C9B22000FFF7D9FE00231C
S11343A005222900C9B22000FFF7D2FECDE1DFF8D3
S11343B00C0750F82400D0F8800040084000DFF8D3
S11343C0FC1651F82410C1F88000DFF8F00650F80C
S11343D02400406D40084000DFF8E01651F8241036
S11343E04865DFF8D80650F82400006830F0200053
S11343F0DFF8C81651F824100860DFF8C00650F83A
S11344002400EDB210EBC500DFF8B01651F824100B
S1134410EDB211EBC501C96831F03001C160002370
S113442000222900C9B22000FFF792FE00230122D6
S11344302900C9B22000FFF78BFE002302222900C5
S1134440C9B22000FFF784FE002303222900C9B269
S11344502000FFF77DFE002304222900C9B22000BA
S1134460FFF776FE002305222900C9B22000FFF7DA
S11344706FFE6AE1DFF8440650F82400D0F88000AB
S113448040084000DFF8341651F82410C1F88000C9
S1134490DFF8280650F82400006830F02000DFF828
S11344A01C1651F824100860DFF8100650F8240098
S11344B0406D50F00400DFF8041651F824104865EC
S11344C0DFF8F80550F82400406D50F00100DFF8E3
S11344D0EC1551F824104865012300222900C9B2C3
S11344E02000FFF735FE012301222900C9B2200074
S11344F0FFF72EFE002302222900C9B22000FFF795
S113450027FE002303222900C9B22000FFF720FE62
S1134510012304222900C9B22000FFF719FE002359
S113452005222900C9B22000FFF712FEDFF88C052E
S113453050F82400EDB210EBC500DFF8801551F8F7
S11345402410EDB211EBC501C96851F03001C1600E
S113455000222900C9B2200000F0F8F80320DFF897
S11345605C1551F824108865DFF8500550F82400D4
S1134570806D50F08000DFF8441551F824108865F0
S1134580E3E0DFF8380550F82400D0F88000400854
S11345904000DFF8281551F82410C1F88000DFF836
S11345A01C0550F82400006830F02000DFF80C15DA
S11345B051F824100860DFF8040550F82400406D19
S11345C050F00400DFF8F41451F824104865DFF8C3
S11345D0EC0450F82400406D50F00100DFF8DC14C6
S11345E051F824104865012300222900C9B2200093
S11345F0FFF7AEFD002301222900C9B22000FFF716
S1134600A7FD002302222900C9B22000FFF7A0FD64
S1134610002303222900C9B22000FFF799FD0123DA
S113462004222900C9B22000FFF792FD00230522CD
S11346302900C9B22000FFF78BFDDFF8800450F891
S11346402400EDB210EBC500DFF8701451F824100B
S1134650EDB211EBC501C96851F03001C16000220F
S11346602900C9B2200000F071F80320DFF84C14CF
S113467051F824108865DFF8440450F82400806D54
S113468050F08000DFF8341451F8241088655CE0A1
S1134690DFF8280450F82400D0F8800050F001001E
S11346A0DFF8181451F82410C1F88000DFF80C0466
S11346B050F82400006830F02000DFF8001451F8AE
S11346C024100860DFF8F40350F82400406D50F023
S11346D00400DFF8E81351F824104865DFF8DC0320
S11346E050F82400406D50F00100DFF8D01351F869
S11346F024104865012300222900C9B22000FFF7D5
S113470027FD002301222900C9B22000FFF720FD64
S1134710002302222900C9B22000FFF719FD00235B
S113472003222900C9B22000FFF712FD002304224E
S11347302900C9B22000FFF70BFD00230522290040
S1134740C9B22000FFF704FDFFE731BD002A02D003
S1134750012A25D049E0DFF8642352F82020C9B2A9
S113476012EBC102DFF8543353F82030C9B213EB13
S1134770C103DB6833F00403D360DFF8402352F84D
S11347802020C9B212EBC102DFF8303353F8200005
S1134790C9B210EBC100C06850F00800D06024E03A
S11347A0DFF8182352F82020C9B212EBC102DFF857
S11347B00C3353F82030C9B213EBC103DB6853F058
S11347C00403D360DFF8F42252F82020C9B212EBBC
S11347D0C102DFF8E83253F82000C9B210EBC1007F
S11347E0C06830F00800D060FFE770472DE9F1475A
S11347F081B00C0015001E0000270DF104085FF0C5
S1134800000A14E0D8F80000800910F00702D8F874
S11348100000400A10F01F001AEB0001C9B2D8F8DA
S11348200000C0F3C20000F0E1FA1AF1010AD8F85E
S11348300000C0F384305FFA8AFAC0B28245E1D343
S11348404FF6FF790120FDF743FAB0FBF5F14FF67F
S1134850FF72B1FBF2F1B0FBF5F2B2FBF1F2B2F58B
S1134860803F00D3491C5FF0000A06E0012212FADF
S11348700AF2B1EB02091AF1010A5FFA8AFABAF1F3
S1134880070F1DDA012212FA0AF28A1A002A04D545
S1134890012212FA0AF2521A03E0012212FA0AF26F
S11348A08A1A4A45E7D25746012212FA0AF28A1AAC
S11348B0002ADBD5012212FA0AF2B2EB0109DAE787
S11348C00122BA408A4200DA7F1CFFB2082F00DBC3
S11348D007270121B940B0FBF1F0B0FBF5F0411E10
S11348E03A00D2B298F8000010F00700FFF702FB7C
S11348F0E4B2002C03D0022C1BD00DD326E00022FE
S1134900D8F80000C00C10F01F0198F8000010F057
S11349100700FFF77FFC19E00222D8F80000C00C62
S113492010F01F0198F8000010F00700FFF772FC68
S11349300CE00322D8F80000C00C10F01F0198F816
S1134940000010F00700FFF765FCFFE73200D8F81D
S11349500000C00C10F01F0198F8000010F00700D0
S113496000F058F8DFF8D00198F8001011F00701B2
S113497050F82100006830F01800DFF8BC1198F8F6
S1134980002012F0070251F822100860DFF8A80195
S113499098F8001011F0070150F82100006850F059
S11349A00800DFF8941198F8002012F0070251F87B
S11349B022100860DFF8800198F8001011F0070158
S11349C050F821000068C008C000DFF86C1198F8A6
S11349D0002012F0070251F822100860DFF8580195
S11349E098F8001011F0070150F821000068FFB298
S11349F017F007010843DFF8401198F8002012F07F
S1134A00070251F82210086098F8000010F007001F
S1134A10BDE8F68710B4DFF8203153F820309B68E6
S1134A2002FB03F242F21073B2FBF3F2DFF8083137
S1134A3053F820305B6E13F0013F33D0C9B2022328
S1134A4091FBF3F404FB1314002C11D0DFF8E830CD
S1134A5053F82030C9B213EBC10300249C60DFF883
S1134A60D83053F82030C9B213EBC1010A6110E009
S1134A70DFF8C43053F82030C9B213EBC10300246B
S1134A801C61DFF8B43053F82030C9B213EBC10114
S1134A908A615FF0FF31DFF8A02052F82000C0F8EF
S1134AA0981007E0DFF8903053F82000C9B210EBFB
S1134AB0C100026110BC7047046700003468000044
S1134AC010B504001D4850F82400002803D01B48EA
S1134AD050F824008047184850F82400006810F06B
S1134AE0C00F09D0144850F82400006830F080004A
S1134AF0114951F824100860002017E00E4951F8BC
S1134B00241011EBC001C96811F0C00F0DD00A497F
S1134B1051F8241011EBC001074A52F8242012EB7B
S1134B20C002D26832F08002CA60401C044951F8C5
S1134B3024108842E2D310BD34680000A858FF1F37
S1134B404068000080B50020FFF7BAFF01BD80B5C2
S1134B500120FFF7B5FF01BD80B50220FFF7B0FFCC
S1134B6001BD000040000DD2010E7F390AD4D1F1FD
S1134B701F0104D4C00140F00040C84070477FF0DA
S1134B8000007047002070474CF220507B49088099
S1134B904DF62810794908804FF4E9707849088067
S1134BA05FF0FF3077490860002077490870774844
S1134BB00068400840007549086024207449087062
S1134BC09A20744908707448007810F01F007249E4
S1134BD008700320714908700020714908707148F9
S1134BE000788007FBD56F480078C006FBD46D4879
S1134BF00078C0B210F00C000828F8D105206749ED
S1134C00087058206649087067485E49086065481E
S1134C1000788006FBD5634800784006FBD51A204F
S1134C205C4908705F480078C0B210F00C000C2892
S1134C30F8D15C4800784006FBD5704755480078A9
S1134C40C021084271D15648007840065CD45148CE
S1134C500078400717D455480078C00701D4544859
S1134C6001E04FF4004001214A4A1278C2F3C20223
S1134C709140C9B2B0FBF1F04549097830221142A4
S1134C8003D0400901E04FF4004043490978C9B218
S1134C9011F0E00100290ED0202918D040291AD0A3
S1134CA060291CD080291ED0A02920D0C02922D060
S1134CB0E02924D027E04FF42071484331490968A2
S1134CC0090F491CB0FBF1F03A49086070474FF4F2
S1134CD0A0614843F2E74FF4F0614843EEE74FF434
S1134CE020614843EAE74FF437714843E6E74FF45D
S1134CF0B7614843E2E740F695014843DEE740F6F2
S1134D0071314843DAE7D9E72448007810F01F00EE
S1134D10411C2748C9B2B0FBF1F02149097811F0D0
S1134D201F011831C9B24843C8E71A480078C0B215
S1134D3010F0C000402810D115480078C00702D4F4
S1134D404FF40040BAE71C4801211C4A1278C2F310
S1134D5042029140B0FBF1F0B0E70E480078C0B2D7
S1134D6010F0C000802808D110480078C00701D492
S1134D700F48A3E74FF40040A0E7A7E70E20054043
S1134D800020054044800440005006400480044054
S1134D9001400640004006400340064004400640EF
S1134DA00540064006400640000017010C4006403E
S1134DB00024F400A000FF1F00093D000840064045
S1134DC0012110F01F029140DFF8F42440B24009A1
S1134DD042F820107047012110F01F029140DFF8C3
S1134DE0E42440B2400942F82010704710B4DFF8C0
S1134DF0D8341B68DFF8D44454F820402343DFF848
S1134E00C8442360DFF8C83453F82030C9B2DFF84F
S1134E10C04454F82040C9B254F8214034F4E0644A
S1134E2043F82140DFF8A83453F82030C9B2DFF842
S1134E30A04454F820000C00E4B250F82400D2B28C
S1134E40120212F4E062104343F8210010BC7047D0
S1134E5010B4DFF874341B68DFF8704454F8204051
S1134E602343DFF864442360D2B2002A03D0022A29
S1134E7035D012D355E0DFF8582452F82020C9B2B7
S1134E80DFF84C3453F820000B00DBB250F8230059
S1134E9030F0020042F8210043E0DFF8342452F8F5
S1134EA02020C9B2DFF8283453F82030C9B253F8AF
S1134EB0213053F0020342F82130DFF8142452F871
S1134EC02020C9B2DFF8083453F820000B00DBB20D
S1134ED050F8230050F0010042F8210021E0DFF8EF
S1134EE0F02352F82020C9B2DFF8E43353F820301D
S1134EF0C9B253F8213053F0020342F82130DFF8ED
S1134F00D02352F82020C9B2DFF8C43353F820006C
S1134F100B00DBB250F823004008400042F82100A7
S1134F20FFE710BC704710B4DFF89C331B68DFF850
S1134F309C4354F820402343DFF88C432360D2B2CF
S1134F40002A10D0DFF8882352F82020C9B252F882
S1134F50212052F02002DFF8783353F82000C9B240
S1134F6040F821200FE0DFF8682352F82020C9B26E
S1134F7052F8212032F02002DFF8543353F8200095
S1134F80C9B240F8212010BC704710B4DFF83833A0
S1134F901B68DFF8384354F820402343DFF82843E4
S1134FA02360D2B2012A0ED1DFF8282352F8202040
S1134FB05269012313FA01F11143DFF8182352F85F
S1134FC0200041610EE0DFF80C2352F820205269E2
S1134FD0012313FA01F132EA0101DFF8F82252F851
S1134FE02000416110BC704710B5040060780028AF
S1134FF006D002282AD016D304284DD039D35EE037
S113500000226168C9B22078FFF722FF002261689C
S1135010C9B22078FFF787FF00226168C9B22078FF
S1135020FFF7B3FF4BE002226168C9B22078FFF7B3
S11350300FFF00226168C9B22078FFF774FF0022D5
S11350406168C9B22078FFF7A0FF38E001226168E7
S1135050C9B22078FFF7FCFE00226168C9B220784B
S1135060FFF761FF00226168C9B22078FFF78DFF66
S113507025E001226168C9B22078FFF7E9FE012228
S11350806168C9B22078FFF74EFF01226168C9B296
S11350902078FFF77AFF12E000226168C9B2207815
S11350A0FFF7D6FE00226168C9B22078FFF73BFF04
S11350B001226168C9B22078FFF767FFFFE7012288
S11350C06168C9B22078FFF791FE10BD1CB50400D9
S11350D020008DF800008DF80120019100A8FFF751
S11350E083FF2000C0B216BD38B5774C2468774DD5
S11350F055F820502C43744D2C60754C54F82040C6
S1135100C9B2734D55F82050C9B255F8215035F441
S1135110702544F82150DBB2002B04D16E4940566F
S1135120FFF759FEA3E0D2B2002A0CD0022A2AD0FB
S113513019D3042A4BD036D3062A70D05BD3072A5E
S113514000F0818093E0624A52F82020C9B2604B9B
S113515053F820000B00DBB250F8230050F48030E9
S113516042F8210083E05A4A52F82020C9B2584B31
S113517053F820000B00DBB250F8230050F4003049
S113518042F8210073E0524A52F82020C9B2504B31
S113519053F820000B00DBB250F8230050F44030E9
S11351A042F8210063E04A4A52F82020C9B2484B31
S11351B053F820300C00E4B253F8243053F40023A5
S11351C042F8213044494056FFF7FAFD4FE0404A87
S11351D052F82020C9B23E4B53F820300C00E4B200
S11351E053F8243053F4102342F821303A494056FE
S11351F0FFF7E6FD3BE0364A52F82020C9B2344BB3
S113520053F820300C00E4B253F8243053F4202334
S113521042F8213030494056FFF7D2FD27E02C4AAE
S113522052F82020C9B22A4B53F820300C00E4B2C3
S113523053F8243053F4302342F8213026494056A1
S1135240FFF7BEFD13E0224A52F82020C9B2204BDA
S113525053F820300C00E4B253F8243053F44023C4
S113526042F821301C494056FFF7AAFDFFE731BD43
S1135270154A1268154B53F820301A43124B1A6022
S11352800A00002A02D0154A42F82010704780B55F
S113529001000F4850F82100D0F8A0005FF0FF3261
S11352A00B4B53F82130C3F8A0200C4A52F82120AC
S11352B0002A03D0094A52F82110884701BD000092
S11352C000E100E080E100E038800440EC67000089
S11352D0D8670000C46700009C6800008458FF1F62
S11352E080B50020FFF7D3FF01BD80B50120FFF793
S11352F0CEFF01BD80B50220FFF7C9FF01BD80B517
S11353000320FFF7C4FF01BD80B50420FFF7BFFFF2
S113531001BD0000002200F067BA000010B4DFF8FD
S11353205C12096851F00201DFF850221160DFF8C5
S11353304C12096851F00201DFF840221160DFF8D5
S11353404012096851F00201DFF83422116001783B
S1135350DFF83022126801238B409A43DFF82432AD
S11353601A60427812F03F02DFF81C321B68C9B29F
S1135370CA548279002A02D0012A0DD019E0DFF83C
S113538008221268C9B28A5C12F0BF02DFF8F83151
S11353901B68C9B2CA540CE0DFF8EC211268C9B228
S11353A08A5C52F04002DFF8E0311B68C9B2CA548B
S11353B0FFE70022C9B24B0103F1804313F5104308
S11353C0DA800022C9B24B0103F1804313F5104384
S11353D09A834288C9B24B0103F1804313F5104309
S11353E09A6082885204520CC9B24B0103F1804383
S11353F013F51043DA8282885204520CC9B24B016D
S113540003F1804313F51043DA83C268DFF87C317B
S1135410C9B24C01E2508268C9B24B0103F1804326
S113542013F510439A80C9B24A0102F1804212F581
S11354301042D288037C1B0213F4E0631A43C9B2FE
S11354404B0103F1804313F51043DA80C9B24A01DA
S113545002F1804212F51042D288037E52EAC3223E
S1135460C9B24B0103F1804313F51043DA8042695A
S1135470C9B24B0103F1804313F51043DA60026AA9
S1135480C9B24B0103F1804313F510431A61C26999
S1135490C9B24B0103F1804313F510439A82C9B298
S11354A04A0102F1804212F51042D28890F8243069
S11354B013F007031A43C9B24B0103F1804313F5F8
S11354C01043DA80C9B24A0102F1804212F5104257
S11354D0D28890F82C30DB0013F0F8031A43C9B2D9
S11354E04B0103F1804313F51043DA80806AC9B29B
S11354F04A0102F1804212F510429061C9B248019A
S113550000F1804010F51040808B50F00800C9B2C3
S11355104A0102F1804212F5104290831A48006851
S1135520C9B2085C50F08000174A1268C9B28854A6
S1135530C9B2080010BC704710F00F00144908707D
S1135540704710F00F00134908707047C0B2400153
S113555000F1804010F510400161704780B510F0F3
S11355600F010E4A11700C4951F82010002903D084
S1135570094951F82000804701BD00003C800440E7
S1135580408004400C800040A4680000009000406B
S11355901B8000401A800040AC57FF1F1F80004052
S11355A080B50020FFF7DAFF01BD80B50120FFF7C9
S11355B0D5FF01BD80B50220FFF7D0FF01BD80B546
S11355C00320FFF7CBFF01BD80B50420FFF7C6FF22
S11355D001BD80B50520FFF7C1FF01BD80B50620E0
S11355E0FFF7BCFF01BD80B50720FFF7B7FF01BD82
S11355F080B50820FFF7B2FF01BD80B50920FFF791
S1135600ADFF01BD80B50A20FFF7A8FF01BD80B53D
S11356100B20FFF7A3FF01BD80B50C20FFF79EFF11
S113562001BD80B50D20FFF799FF01BD80B50E20A7
S1135630FFF794FF01BD80B50F20FFF78FFF01BD79
S113564038B504000D0000F01FF8002801D1002037
S113565019E0422000F090F800F061F8002803D12E
S113566000F047F800200EE02000C0B200F084F8FB
S113567000F055F82800C0B200F07EF800F04FF8B2
S113568000F037F8012032BD80B501204F49086091
S113569001204F49086041F2883000F09FF8002053
S11356A04C4908604C480068002804D1012049494D
S11356B0086000201CE0012046490860002043499E
S11356C0086041F2883000F089F800204149086000
S11356D041480068002804D001203E4908600020A9
S11356E006E001203B490860002038490860012099
S11356F002BD80B5002036490860002033490860A7
S113570041F2883000F06AF8012031490860012034
S11357102E49086041F2883000F060F801BD80B580
S113572000202B49086041F2883000F057F801202E
S11357302649086041F2883000F050F801202449DD
S1135740086000202349086041F2883000F046F8E0
S113575021480068002807D001201E490860002065
S11357601B490860002006E001201A490860002057
S113577017490860012002BD38B5040008250EE071
S1135780002012490860640041F2883000F026F8D5
S113579001200F49086041F2883000F01FF828000A
S11357A0451EC0B200280CD000200949086041F20F
S11357B0883000F013F82006E2D501200349086080
S11357C0E1E700200249086031BD00000C10FE43EF
S11357D00010FE438C12FE430C12FE4300E0401EF8
S11357E080B20028FBD1704700B500BF1300964675
S11357F09446103928BFA0E80C50FAD85FEA417CDF
S113580028BF0CC048BF40F8042BC90728BF20F8A4
S1135810022B48BF00F8012B00BD0000000000006F
S11358200000000000000000000000000000000074
S113583000001FCC000C0000000000000000080065
S1135840300060000800300060000000022003FC0B
S11358501E20022003FC1E200220000000000E185F
S113586011043FFF10840C78000000000F00108426
S11358700F3800C0077818840078000000780F847F
S113588010C411240E9800E4008400080800680085
S11358907000000000000000000000000000000094
S11358A0000007E018182004400200000000400235
S11358B02004181807E00000000000000240024025
S11358C001800FF00180024002400000008000804F
S11358D000800FF800800080008000000001000DAF
S11358E0000E000000000000000000000000008026
S11358F00080008000800080008000800000000C98
S1135900000C000000000000000000000000000681
S1135910001800600180060018002000000007F055
S1135920080810041004080807F000000000080428
S113593008041FFC000400040000000000000E0C1A
S113594010141024104411840E0C000000000C18D4
S113595010041104110412880C700000000000E00F
S11359600320042408241FFC0024000000001F98C6
S1135970108411041104108810700000000007F056
S113598008881104110418880070000000001C002D
S1135990100010FC13001C001000000000000E3862
S11359A011441084108411440E38000000000700D4
S11359B0088C10441044088807F000000000000020
S11359C00000030C030C00000000000000000000B5
S11359D0000101060000000000000000000000803B
S11359E001400220041008081004000002200220D4
S11359F002200220022002200220000000001004E5
S1135A0008080410022001400080000000000E007D
S1135A101200100C106C10800F00000003E00C1832
S1135A2013E4142417C4082807D000000004003C21
S1135A3003C41C40074000E4001C000410041FFCC5
S1135A401104110411040E880070000003E00C1806
S1135A5010041004100410081C10000010041FFC93
S1135A60100410041004080807F0000010041FFCC0
S1135A701104110417C410040818000010041FFCBA
S1135A801104110017C010000800000003E00C18F6
S1135A901004100410441C780040000010041FFC83
S1135AA010840080008010841FFC10040000100487
S1135AB010041FFC10041004000000000003000187
S1135AC0100110011FFE10001000000010041FFC44
S1135AD0110403801464181C1004000010041FFC3B
S1135AE01004000400040004000C000010041FFC57
S1135AF01F0000FC1F001FFC1004000010041FFC0A
S1135B000C04030000E010181FFC100007F0080844
S1135B10100410041004080807F0000010041FFC0F
S1135B2010841080108010800F00000007F0081807
S1135B3010241024101C080A07F2000010041FFC93
S1135B401104110011C011300E0C000400000E1CD1
S1135B5011041084108410441C3800001800100034
S1135B6010041FFC100410001800000010001FF89F
S1135B7010040004000410041FF8100010001E009C
S1135B8011E0001C007013801C0010001FC0103CAA
S1135B9000E01F0000E0103C1FC000001004180CBF
S1135BA0163401C001C01634180C100410001C0077
S1135BB0130400FC13041C00100000000804101C53
S1135BC01064108413041C0410180000000000006A
S1135BD000007FFE4002400240020000000030004E
S1135BE00C0003800060001C000300000000400261
S1135BF0400240027FFE00000000000000000000A0
S1135C00200040004000400020000000000100018E
S1135C10000100010001000100010001000040003A
S1135C204000200000000000000000000000009878
S1135C30012401440144014400FC000410001FFC41
S1135C400088010401040088007000000000007056
S1135C5000880104010401040088000000000070B1
S1135C6000880104010411081FFC0004000000F86E
S1135C70014401440144014400C80000000001043F
S1135C8001040FFC1104110411001800000000D6D7
S1135C9001290129012901C90106000010041FFC82
S1135CA0008401000100010400FC00040000010460
S1135CB0190419FC000400040000000000000003A3
S1135CC000010101190119FE0000000010041FFC6D
S1135CD00024004001B4010C010400000000100481
S1135CE010041FFC0004000400000000010401FC77
S1135CF00104010001FC0104010000FC010401FC99
S1135D00008401000100010400FC0004000000F80C
S1135D10010401040104010400F80000010101FF71
S1135D200085010401040088007000000000007078
S1135D30008801040104010501FF000101040104BC
S1135D4001FC00840104010001800000000000CC7B
S1135D500124012401240124019800000000010011
S1135D60010007F80104010400000000010001F82B
S1135D70000400040004010801FC00040100018087
S1135D800170000C001001600180010001F0010CA1
S1135D90003001C00030010C01F0010000000104DA
S1135DA0018C00740170018C010400000101018167
S1135DB00171000E001801600180010000000184DF
S1135DC0010C013401440184010C000000000000B6
S1135DD00000000001003EFC400240020000000000
S1135DE000000000FFFF000000000000000040026F
S1135DF040023EFC010000000000000000006000C2
S1135E0080008000400040002000200000000000CE
S1135E100000000000000000000000003F400000FF
S1135E20000000000000300040003000400000008E
S1135E3009000BC03D000BC03D00090018C0244000
S1135E407FE0224031800000180024C01B000D8038
S1135E503240018003801C4027401C8007400040E2
S1135E6010006000000000000000000000000000BE
S1135E7000001F80204040200000402020401F8060
S1135E8000000000090006001F8006000900000051
S1135E90040004003F8004000400000000100060BF
S1135EA000000000000000000400040004000400DE
S1135EB0040000000000004000000000000000009A
S1135EC0002001C006003800400000001F80204070
